:020000040800F2
:100000000050002025280008B1270008BD2700085F
:10001000C3270008C9270008CF27000800000000F8
:10002000000000000000000000000000D5270008CC
:10003000E127000800000000ED270008F92700086C
:100040006D2800086D2800086D2800086D2800083C
:100050006D2800086D2800086D2800086D2800082C
:100060006D2800086D2800086D2800080528000884
:100070006D2800086D2800086D2800086D2800080C
:100080006D2800086D2800086D2800086D280008FC
:100090006D2800086D2800086D2800086D280008EC
:1000A0006D2800086D2800086D2800086D280008DC
:1000B0006D2800086D2800086D2800086D280008CC
:1000C0006D2800086D2800086D2800086D280008BC
:1000D0006D2800086D2800086D2800086D280008AC
:1000E0006D2800086D2800086D2800080000000039
:1000F0000000000000000000000000000000000000
:0C01000000000000000000005FF808F1A3
:10010C0010B5054C237833B9044B13B10448AFF345
:10011C0000800123237010BD0C00002000000000A3
:10012C00C828000808B5034B1BB103490348AFF3BB
:10013C00008008BD0000000010000020C828000846
:10014C0080B500AF084A084B1B6843F010031360DE
:10015C00032000F0EFFD002000F008F802F03EFA5A
:10016C000023184680BD00BF0020024080B582B03D
:10017C0000AF7860124B1A68124B1B7819464FF47B
:10018C007A73B3FBF1F3B2FBF3F3184600F007FEFE
:10019C000346002B01D001230EE07B680F2B0AD8FD
:1001AC00002279684FF0FF3000F0CFFD064A7B68E3
:1001BC001360002300E0012318460837BD4680BDBC
:1001CC0008000020040000200000002080B400AFD4
:1001DC00054B1B781A46054B1B681344034A1360E6
:1001EC0000BFBD4680BC7047040000202C000020DE
:1001FC0080B400AF024B1B681846BD4680BC7047EC
:10020C002C00002080B584B000AF7860FFF7F0FFC1
:10021C00B8607B68FB60FB68B3F1FF3F05D0094B0E
:10022C001B781A46FB681344FB6000BFFFF7E0FF26
:10023C000246BB68D21AFB689A42F7D300BF10374C
:10024C00BD4680BD0400002080B586B000AF78604C
:10025C000023FB7500233B610023BB600023FB6084
:10026C007B68002B01D10123BEE07B689B68002BCF
:10027C007B689B6A002B09D17B680022DA627B6861
:10028C00002283F82420786802F0DAF9786800F00C
:10029C00B1FB0346FB757B689B6A03F01003002BD4
:1002AC0040F09980FB7D002B40F095807B689B6A29
:1002BC0023F4885323F0020343F002027B689A6212
:1002CC007B685A687B68DB691A437B681B7B5B0025
:1002DC001343BA681343BB607B689B68B3F5807F9C
:1002EC0003D07B689B68012B02D14FF4807300E034
:1002FC0000233A6913433B617B681B7D012B19D1A9
:10030C007B681B7B002B09D17B689B69013B5A03E3
:10031C003B69134343F400633B610BE07B689B6ACE
:10032C0043F020027B689A627B68DB6A43F001022F
:10033C007B68DA627B681B687A681268526822F400
:10034C0069413A690A435A607B681A687B681B6882
:10035C009968274B0B40B9680B4393607B689B688B
:10036C00B3F5807F03D07B689B68012B04D17B683D
:10037C001B69013B1B05FB607B681B687A68126874
:10038C00D26A22F47001FA680A43DA627B681B684D
:10039C009A68184B1340BA6893420BD17B680022C1
:1003AC00DA627B689B6A23F0030343F001027B68EB
:1003BC009A6218E07B689B6A23F0120343F01002E8
:1003CC007B689A627B68DB6A43F001027B68DA62C5
:1003DC000123FB7507E07B689B6A43F010027B6886
:1003EC009A620123FB75FB7D18461837BD4680BD0C
:1003FC00FDF7E1FFFE0E1FFF80B584B000AF786003
:10040C000023FB737B6893F82430012B01D102236A
:10041C0098E07B68012283F82420786800F098FA31
:10042C000346FB73FB7B002B40F087807B689B6A49
:10043C0023F4407323F0010343F480727B689A62C7
:10044C007B681B68414A934205D1414B5B6803F4BE
:10045C007023002B15D17B689B6A23F480127B6878
:10046C009A627B681B685B6803F48063002B26D060
:10047C007B689B6A23F4405343F480527B689A62F6
:10048C001DE07B689B6A43F480127B689A627B68F0
:10049C001B682F4A934204D07B681B682B4A9342FB
:1004AC000DD12B4B5B6803F48063002B07D07B686A
:1004BC009B6A23F4405343F480527B689A627B68B6
:1004CC009B6A03F48053002B06D07B68DB6A23F015
:1004DC0006027B68DA6202E07B680022DA627B68E3
:1004EC00002283F824207B681B686FF002021A60DC
:1004FC007B681B689B6803F46023B3F5602F13D1F2
:10050C007B681B68114A934205D1114B5B6803F45D
:10051C007023002B08D17B681B687A68126892687C
:10052C0042F4A0029A600CE07B681B687A6812683F
:10053C00926842F480129A6003E07B68002283F890
:10054C002420FB7B18461037BD4680BD0028014097
:10055C000024014090B587B000AF7860396000236B
:10056C007B610023FB6000233B61FFF741FE786158
:10057C007B681B689B6803F48073002B0BD07B6833
:10058C009B6A43F020027B689A627B68002283F8A6
:10059C0024200123C8E07B681B685B6803F480732C
:1005AC00002B2AD17B681B68DB6A03F47003002BD9
:1005BC0023D11AE03B68B3F1FF3F16D03B68002B08
:1005CC0007D0FFF715FE02467B69D21A3B689A42A8
:1005DC000BD97B689B6A43F004027B689A627B6848
:1005EC00002283F8242003239EE07B681B681B6891
:1005FC0003F00203002BDDD06CE04D4B1C68022095
:10060C0001F0A2FB0346B4FBF3F27B681B6819698B
:10061C00484B0B40002B18D17B681B68D968464BA4
:10062C000B40002B11D17B681B681969434B0B40A5
:10063C00002B08D17B681B68D968414B0B40002B01
:10064C0001D1142320E029231EE07B681B68196963
:10065C003A4B0B40002B06D17B681B68D968384B92
:10066C000B40002B0DD07B681B681969354B0B4078
:10067C00002B08D17B681B68D968324B0B40002BD0
:10068C0001D1542300E0FC2303FB02F33B611DE08A
:10069C003B68B3F1FF3F16D03B68002B07D0FFF748
:1006AC00A7FD02467B69D21A3B689A420BD97B683C
:1006BC009B6A43F004027B689A627B68002283F891
:1006CC002420032330E0FB680133FB60FA683B69AC
:1006DC009A42DDD37B681B686FF012021A607B684C
:1006EC009B6A43F400727B689A627B681B689B6808
:1006FC0003F46023B3F5602F15D17B681B7B002BB3
:10070C0011D17B689B6A23F480727B689A627B6848
:10071C009B6A03F48053002B05D17B689B6A43F0E2
:10072C0001027B689A62002318461C37BD4690BDB7
:10073C000800002024499224244992009224491252
:10074C00922449004992240080B483B000AF7860B1
:10075C007B681B68DB6C18460C37BD4680BC704749
:10076C0090B484B000AF786039600023FB73002331
:10077C00BB607B6893F82430012B01D10223DCE0B1
:10078C007B68012283F824203B685B68062B1CD80D
:10079C007B6819687B681B68586B3B685A68134602
:1007AC009B001344053B1F2202FA03F3DB43184062
:1007BC003B681C683B685A6813469B001344053B16
:1007CC0004FA03F303434B633CE03B685B680C2B7C
:1007DC001CD87B6819687B681B68186B3B685A6867
:1007EC0013469B001344233B1F2202FA03F3DB4303
:1007FC0018403B681C683B685A6813469B001344BE
:10080C00233B04FA03F303430B631BE07B68196877
:10081C007B681B68D86A3B685A6813469B00134474
:10082C00413B1F2202FA03F3DB4318403B681C6870
:10083C003B685A6813469B001344413B04FA03F38C
:10084C000343CB623B681B68092B1CD97B68196876
:10085C007B681B68D8683B681A6813465B001344B6
:10086C001E3B072202FA03F3DB4318403B689C68EB
:10087C003B681A6813465B0013441E3B04FA03F3EF
:10088C000343CB6019E07B6819687B681B681869A7
:10089C003B681A6813465B001344072202FA03F301
:1008AC00DB4318403B689C683B681A6813465B0046
:1008BC00134404FA03F303430B613B681B68102BCE
:1008CC0003D03B681B68112B32D17B681B681D4A17
:1008DC00934225D17B681B689B6803F40003002BB3
:1008EC0026D17B681B687A681268926842F4000211
:1008FC009A603B681B68102B1AD1134B1B68134A68
:10090C00A2FB03239A0C13469B0013445B00BB60B1
:10091C0002E0BB68013BBB60BB68002BF9D107E070
:10092C007B689B6A43F020027B689A620123FB730D
:10093C007B68002283F82420FB7B18461037BD46C9
:10094C0090BC7047002401400800002083DE1B434C
:10095C0080B584B000AF78600023FB600023BB60DF
:10096C007B681B689B6803F00103012B39D07B6803
:10097C001B687A681268926842F001029A601B4BFD
:10098C001B681B4AA2FB03239B0CBB6002E0BB68E9
:10099C00013BBB60BB68002BF9D1FFF729FCF86069
:1009AC0018E0FFF725FC0246FB68D31A022B11D97D
:1009BC007B689B6A43F010027B689A627B68DB6AF7
:1009CC0043F001027B68DA627B68002283F8242002
:1009DC00012307E07B681B689B6803F00103012B74
:1009EC00DFD1002318461037BD4680BD080000201B
:1009FC0083DE1B4380B584B000AF78600023FB60BE
:100A0C007B681B689B6803F00103012B27D17B6873
:100A1C001B687A681268926822F001029A60FFF7EC
:100A2C00E7FBF86014E0FFF7E3FB0246FB68D31A20
:100A3C00022B0DD97B689B6A43F010027B689A628B
:100A4C007B68DB6A43F001027B68DA62012307E012
:100A5C007B681B689B6803F00103012BE3D0002328
:100A6C0018461037BD4680BD90B587B000AF786092
:100A7C000023FB750023FB607B6893F82430012B6B
:100A8C0001D1022386E07B68012283F82420786858
:100A9C00FFF7B0FF0346FB75FB7D002B75D17B6820
:100AAC009B6A23F4885323F0020343F002027B6811
:100ABC009A623A4B1C68022001F046F90346B4FBDB
:100ACC00F3F35B00FB6002E0FB68013BFB60FB683F
:100ADC00002BF9D17868FFF73BFF7B681B687A68BD
:100AEC001268926842F008029A60FFF781FB386145
:100AFC0014E0FFF77DFB02463B69D31A0A2B0DD994
:100B0C007B689B6A23F0120343F010027B689A62A5
:100B1C007B68002283F8242001233BE07B681B6860
:100B2C009B6803F00803002BE3D17B681B687A6891
:100B3C001268926842F004029A60FFF759FB386120
:100B4C0014E0FFF755FB02463B69D31A0A2B0DD96B
:100B5C007B689B6A23F0120343F010027B689A6255
:100B6C007B68002283F82420012313E07B681B6838
:100B7C009B6803F00403002BE3D17B689B6A23F092
:100B8C00030343F001027B689A627B68002283F8BE
:100B9C002420FB7D18461C37BD4690BD0800002064
:100BAC0080B485B000AF78607B6803F00703FB600E
:100BBC000C4BDB68BB60BA684FF6FF031340BB609D
:100BCC00FB681A02BB68134343F0BF6343F4003362
:100BDC00BB60044ABB68D36000BF1437BD4680BC01
:100BEC00704700BF00ED00E080B400AF044BDB6841
:100BFC001B0A03F007031846BD4680BC704700BFB4
:100C0C0000ED00E080B483B000AF0346FB7197F9B0
:100C1C000730002B0BDB084997F907305B09FA7991
:100C2C0002F01F02012000FA02F241F8232000BF5B
:100C3C000C37BD4680BC704700E100E080B483B047
:100C4C0000AF03463960FB7197F90730002B0ADBC4
:100C5C000D4997F907303A68D2B21201D2B20B445F
:100C6C0083F800230AE00949FB7903F00F03043BE6
:100C7C003A68D2B21201D2B20B441A7600BF0C37CA
:100C8C00BD4680BC704700BF00E100E000ED00E015
:100C9C0080B489B000AFF860B9607A60FB6803F08B
:100CAC000703FB61FB69C3F10703042B28BF042373
:100CBC00BB61FB690433062B02D9FB69033B00E0E3
:100CCC0000237B610122BB6902FA03F35A1EBB6845
:100CDC001A407B699A4001217B6901FA03F3591E82
:100CEC007B680B40134318462437BD4680BC7047C5
:100CFC0080B582B000AF78607B68013BB3F1807F38
:100D0C0001D301230FE00A4A7B68013B53600F219A
:100D1C004FF0FF30FFF792FF054B00229A60044B17
:100D2C0007221A60002318460837BD4680BD00BF55
:100D3C0010E000E080B582B000AF78607868FFF713
:100D4C002FFF00BF0837BD4680BD80B586B000AF11
:100D5C000346B9607A60FB7300237B61FFF744FFA5
:100D6C0078617A68B9687869FFF792FF024697F95B
:100D7C000F3011461846FFF761FF00BF1837BD460C
:100D8C0080BD80B582B000AF0346FB7197F9073088
:100D9C001846FFF737FF00BF0837BD4680BD80B54A
:100DAC0082B000AF78607868FFF7A2FF0346184660
:100DBC000837BD4680BD000080B485B000AF7860B8
:100DCC000023FB607B68002B01D1012343E07B688F
:100DDC001B681A46224B1344224AA2FB03231B090D
:100DEC009A007B681A647B681F4ADA637B6802226C
:100DFC0083F821207B681B681B68FB60FB6823F46D
:100E0C007F5323F03003FB607B685A687B689B68D8
:100E1C001A437B68DB681A437B681B691A437B683F
:100E2C005B691A437B689B691A437B68DB691343D4
:100E3C00FA681343FB607B681B68FA681A607B686E
:100E4C0000229A637B68012283F821207B680022B0
:100E5C0083F82020002318461437BD4680BC704709
:100E6C00F8FFFDBFCDCCCCCC0000024080B584B0E7
:100E7C0000AF78607B68DB6B1B68FB607B681B6872
:100E8C001B68BB607B681B6C04229A40FB68134098
:100E9C00002B55D0BB6803F00403002B50D07B68AB
:100EAC001B681B6803F02003002B07D17B681B68B1
:100EBC007A681268126822F004021A606D4A7B6824
:100ECC001B6819466C4B99422ED07B681B681946DF
:100EDC006A4B994226D07B681B681946684B99422D
:100EEC001DD07B681B681946664B994214D07B68F1
:100EFC001B681946644B99420BD07B681B681946DA
:100F0C00624B994202D14FF480030EE04FF08063A4
:100F1C000BE04FF4802308E04FF4804305E04FF4DE
:100F2C00806302E0402300E0042353607B68DB6AAB
:100F3C00002B00F09A807B68DB6A7868984794E015
:100F4C007B681B6C02229A40FB681340002B5CD020
:100F5C00BB6803F00203002B57D07B681B681B682F
:100F6C0003F02003002B0BD17B681B687A68126896
:100F7C00126822F00A021A607B68012283F8212091
:100F8C003C4A7B681B6819463B4B99422ED07B68C8
:100F9C001B681946394B994226D07B681B68194649
:100FAC00374B99421DD07B681B681946354B9942CB
:100FBC0014D07B681B681946334B99420BD07B6865
:100FCC001B681946314B994202D14FF400130EE0C5
:100FDC004FF000730BE04FF4003308E04FF4005374
:100FEC0005E04FF4007302E0202300E0022353607D
:100FFC007B68002283F820207B689B6A002B34D00E
:10100C007B689B6A786898472FE07B681B6C08228A
:10101C009A40FB681340002B28D0BB6803F00803F0
:10102C00002B23D07B681B687A681268126822F048
:10103C000E021A607B68DB6B7A68126C012101FA74
:10104C0002F25A607B6801229A637B68012283F862
:10105C0021207B68002283F820207B681B6B002BEF
:10106C0004D07B681B6B7868984700BF00BF1037B3
:10107C00BD4680BD00000240080002401C0002403A
:10108C003000024044000240580002406C00024014
:10109C0080B48BB000AF7860396000237B62002392
:1010AC003B6227E101227B6A02FA03F3FB613B6896
:1010BC001A68FB691340BB61BA69FB699A4240F03C
:1010CC0016813B685B68122B34D0122B0DD8022B87
:1010DC002BD0022B04D8002B31D0012B1CD048E094
:1010EC00032B43D0112B1BD043E0894A934226D0CB
:1010FC00874A934206D8874A934220D0864A934225
:10110C001DD036E0854A934219D0854A934216D0B9
:10111C00844A934213D02CE03B68DB683B6228E0A6
:10112C003B68DB6804333B6223E03B68DB680833D5
:10113C003B621EE03B68DB680C333B6219E03B68AA
:10114C009B68002B02D104233B6212E03B689B6836
:10115C00012B05D108233B627B68FA691A6108E010
:10116C0008233B627B68FA695A6102E000233B6208
:10117C0000BFBB69FF2B01D87B6801E07B6804339F
:10118C007B61BB69FF2B02D87B6A9B0002E07B6A08
:10119C00083B9B003B617B691A680F213B6901FA94
:1011AC0003F3DB431A40396A3B6901FA03F31A4330
:1011BC007B691A603B685B6803F08053002B00F07E
:1011CC009680594A584B9B6943F001039361564BE7
:1011DC009B6903F00103BB60BB68544A7B6A9B08A4
:1011EC00023352F82330FB607B6A03F003039B004D
:1011FC000F2202FA03F3DB43FA681340FB607B68AF
:10120C004B4A934213D07B684A4A93420DD07B6879
:10121C00494A934207D07B68484A934201D1032341
:10122C0006E0042304E0022302E0012300E0002393
:10123C007A6A02F0030292009340FA681343FB604F
:10124C003A497B6A9B080233FA6841F823203B68D1
:10125C005B6803F48033002B06D03949384B1A688D
:10126C00BB6913430B6006E03549354B1A68BB6903
:10127C00DB4313400B603B685B6803F40033002BCB
:10128C0006D02F492E4B5A68BB6913434B6006E0BE
:10129C002B492B4B5A68BB69DB4313404B603B68B3
:1012AC005B6803F48013002B06D02549244B9A6805
:1012BC00BB6913438B6006E02149214B9A68BB69DB
:1012CC00DB4313408B603B685B6803F40013002B1B
:1012DC0006D01B491A4BDA68BB691343CB6006E096
:1012EC001749174BDA68BB69DB431340CB607B6A49
:1012FC0001337B623B681A687B6A22FA03F3002B8A
:10130C007FF4D0AE00BF2C37BD4680BC704700BF09
:10131C00000021100000111000001210000031100C
:10132C0000003210000022100010024000000140AA
:10133C0000080140000C0140001001400014014065
:10134C000004014080B485B000AF78600B467B8010
:10135C007B689A687B881340002B02D00123FB73B7
:10136C0001E00023FB73FB7B18461437BD4680BCA1
:10137C00704780B483B000AF78600B467B80134617
:10138C007B707B78002B03D07A887B681A6103E032
:10139C007B881A047B681A6100BF0C37BD4680BC81
:1013AC007047000080B586B000AF78607B68002B7A
:1013BC0001D101236CE27B681B6803F00103002B55
:1013CC0000F08780924B5B6803F00C03042B0CD06D
:1013DC008F4B5B6803F00C03082B12D18C4B5B68B2
:1013EC0003F48033B3F5803F0BD1894B1B6803F4B6
:1013FC000033002B6CD07B685B68002B68D1012319
:10140C0046E27B685B68B3F5803F06D1804A804B2F
:10141C001B6843F4803313602EE07B685B68002B01
:10142C000CD17B4A7A4B1B6823F480331360784AC7
:10143C00774B1B6823F4802313601DE07B685B688B
:10144C00B3F5A02F0CD1724A714B1B6843F4802367
:10145C0013606F4A6E4B1B6843F4803313600BE0D0
:10146C006B4A6B4B1B6823F480331360684A684BE0
:10147C001B6823F4802313607B685B68002B13D0FC
:10148C00FEF7B6FE386108E0FEF7B2FE02463B6995
:10149C00D31A642B01D90323FAE15D4B1B6803F4C7
:1014AC000033002BF0D014E0FEF7A2FE386108E008
:1014BC00FEF79EFE02463B69D31A642B01D9032327
:1014CC00E6E1534B1B6803F40033002BF0D100E032
:1014DC0000BF7B681B6803F00203002B63D04C4BEE
:1014EC005B6803F00C03002B0BD0494B5B6803F0DB
:1014FC000C03082B1CD1464B5B6803F48033002B88
:10150C0016D1434B1B6803F00203002B05D07B68FC
:10151C001B69012B01D00123BAE13D493C4B1B68EF
:10152C0023F0F8027B685B69DB0013430B603AE045
:10153C007B681B69002B20D0364B01221A60FEF70A
:10154C0057FE386108E0FEF753FE02463B69D31A9A
:10155C00022B01D903239BE12D4B1B6803F00203E3
:10156C00002BF0D02A492A4B1B6823F0F8027B6829
:10157C005B69DB0013430B6015E0264B00221A60FD
:10158C00FEF736FE386108E0FEF732FE02463B6994
:10159C00D31A022B01D903237AE11D4B1B6803F0EC
:1015AC000203002BF0D17B681B6803F00803002BAF
:1015BC003AD07B689B69002B19D0174B01221A601B
:1015CC00FEF716FE386108E0FEF712FE02463B6994
:1015DC00D31A022B01D903235AE10D4B5B6A03F09A
:1015EC000203002BF0D0012000F0DAFA1CE00A4BC9
:1015FC0000221A60FEF7FCFD38610FE0FEF7F8FDE3
:10160C0002463B69D31A022B08D9032340E100BFE1
:10161C000010024000004242800442429E4B5B6A32
:10162C0003F00203002BE9D17B681B6803F0040371
:10163C00002B00F0A6800023FB75974BDB6903F0B1
:10164C008053002B0DD1944A934BDB6943F08053AC
:10165C00D361914BDB6903F08053BB60BB68012302
:10166C00FB758E4B1B6803F48073002B18D18B4ACF
:10167C008A4B1B6843F480731360FEF7B9FD386125
:10168C0008E0FEF7B5FD02463B69D31A642B01D97D
:10169C000323FDE0814B1B6803F48073002BF0D017
:1016AC007B68DB68012B06D17B4A7B4B1B6A43F0C2
:1016BC00010313622DE07B68DB68002B0CD1764AAA
:1016CC00754B1B6A23F001031362734A724B1B6A3E
:1016DC0023F0040313621CE07B68DB68052B0CD140
:1016EC006D4A6D4B1B6A43F0040313626A4A6A4BE2
:1016FC001B6A43F0010313620BE0674A664B1B6ADB
:10170C0023F001031362644A634B1B6A23F0040346
:10171C0013627B68DB68002B15D0FEF769FD38611E
:10172C000AE0FEF765FD02463B69D31A41F28832A6
:10173C00934201D90323ABE0574B1B6A03F002031E
:10174C00002BEED014E0FEF753FD38610AE0FEF7F3
:10175C004FFD02463B69D31A41F28832934201D9BC
:10176C00032395E04C4B1B6A03F00203002BEED1D4
:10177C00FB7D012B05D1484A474BDB6923F0805395
:10178C00D3617B68DB69002B00F08180424B5B6886
:10179C0003F00C03082B61D07B68DB69022B46D16C
:1017AC003F4B00221A60FEF723FD386108E0FEF77C
:1017BC001FFD02463B69D31A022B01D9032367E0B4
:1017CC00354B1B6803F00073002BF0D17B681B6A50
:1017DC00B3F5803F08D130492F4B5B6823F40032BE
:1017EC007B689B6813434B602B482B4B5B6823F443
:1017FC0074127B68196A7B685B6A0B431343436002
:10180C00274B01221A60FEF7F3FC386108E0FEF763
:10181C00EFFC02463B69D31A022B01D9032337E0B4
:10182C001D4B1B6803F00073002BF0D02FE01C4BFA
:10183C0000221A60FEF7DCFC386108E0FEF7D8FCE9
:10184C0002463B69D31A022B01D9032320E0124B29
:10185C001B6803F00073002BF0D118E07B68DB6988
:10186C00012B01D1012313E00B4B5B68FB60FB6880
:10187C0003F480327B681B6A9A4206D1FB6803F43E
:10188C0070127B685B6A9A4201D0012300E000234E
:10189C0018461837BD4680BD00100240007000404D
:1018AC006000424280B584B000AF786039607B68DC
:1018BC00002B01D10123D0E06A4B1B6803F0070217
:1018CC003B689A4210D26749664B1B6823F00702AB
:1018DC003B6813430B60634B1B6803F007023B68C8
:1018EC009A4201D00123B8E07B681B6803F0020325
:1018FC00002B20D07B681B6803F00403002B05D061
:10190C00594A594B5B6843F4E06353607B681B682E
:10191C0003F00803002B05D0534A534B5B6843F488
:10192C00605353605049504B5B6823F0F0027B6866
:10193C009B6813434B607B681B6803F00103002B0F
:10194C0040D07B685B68012B07D1474B1B6803F4C5
:10195C000033002B15D101237FE07B685B68022BE1
:10196C0007D1414B1B6803F00073002B09D10123F5
:10197C0073E03D4B1B6803F00203002B01D10123E4
:10198C006BE03949384B5B6823F003027B685B687A
:10199C0013434B60FEF72CFCF8600AE0FEF728FCC2
:1019AC000246FB68D31A41F28832934201D90323D1
:1019BC0053E02D4B5B6803F00C027B685B689B006B
:1019CC009A42EBD1274B1B6803F007023B689A4203
:1019DC0010D92449234B1B6823F007023B6813439F
:1019EC000B60204B1B6803F007023B689A4201D046
:1019FC00012332E07B681B6803F00403002B08D042
:101A0C001949194B5B6823F4E0627B68DB6813436C
:101A1C004B607B681B6803F00803002B09D012494C
:101A2C00114B5B6823F460527B681B69DB0013432A
:101A3C004B6000F021F801460B4B5B681B0903F06F
:101A4C000F030A4AD35C21FA03F3094A1360094BCA
:101A5C001B681846FEF78AFB002318461037BD4654
:101A6C0080BD00BF00200240001002400829000881
:101A7C00080000200000002090B48AB000AF2A4B70
:101A8C003C1D0FCB84E80F00284B1B883B800023A8
:101A9C00FB610023BB6100237B6200237B6100237D
:101AAC003B62234B5B68FB61FB6903F00C03042B6B
:101ABC0002D0082B03D02DE01E4B3B622DE0FB69BE
:101ACC009B0C03F00F0307F12802134413F8243C7A
:101ADC007B61FB6903F48033002B13D0144B5B68E0
:101AEC005B0C03F0010307F12802134413F8283CA4
:101AFC00BB617B690F4A02FB03F2BB69B2FBF3F3D8
:101B0C007B6204E07B690C4A02FB03F37B627B6A19
:101B1C003B6202E0074B3B6200BF3B6A184628372A
:101B2C00BD4690BC704700BFE0280008F0280008B4
:101B3C000010024000127A0000093D0080B400AF92
:101B4C00024B1B681846BD4680BC7047080000203D
:101B5C0080B500AFFFF7F2FF0146054B5B681B0A2F
:101B6C0003F00703034AD35C21FA03F3184680BD44
:101B7C00001002401829000880B500AFFFF7DEFF07
:101B8C000146054B5B68DB0A03F00703034AD35C91
:101B9C0021FA03F3184680BD0010024018290008F2
:101BAC0080B485B000AF78600A4B1B680A4AA2FB70
:101BBC0003235B0A7A6802FB03F3FB6000BFFB683C
:101BCC005A1EFA60002BF9D100BF1437BD4680BCF9
:101BDC00704700BF08000020D34D621080B586B05E
:101BEC0000AF786000233B610023FB607B681B68BF
:101BFC0003F00103002B7DD00023FB754F4BDB69F9
:101C0C0003F08053002B0DD14C4A4C4BDB6943F055
:101C1C008053D361494BDB6903F08053BB60BB68D5
:101C2C000123FB75464B1B6803F48073002B18D102
:101C3C00434A434B1B6843F480731360FEF7D8FA96
:101C4C00386108E0FEF7D4FA02463B69D31A642BDC
:101C5C0001D903236DE03A4B1B6803F48073002B0E
:101C6C00F0D0364B1B6A03F44073FB60FB68002B0F
:101C7C002ED07B685B6803F44072FB689A4227D0D5
:101C8C002E4B1B6A23F44073FB602E4B01221A600F
:101C9C002C4B00221A60294AFB681362FB6803F084
:101CAC000103002B14D0FEF7A3FA38610AE0FEF70B
:101CBC009FFA02463B69D31A41F28832934201D90A
:101CCC00032336E01D4B1B6A03F00203002BEED0FE
:101CDC001A491A4B1B6A23F440727B685B681343E6
:101CEC000B62FB7D012B05D1144A144BDB6923F0ED
:101CFC008053D3617B681B6803F00203002B08D070
:101D0C000E490E4B5B6823F440427B689B6813437F
:101D1C004B607B681B6803F01003002B08D007494D
:101D2C00064B5B6823F480027B68DB6813434B60D3
:101D3C00002318461837BD4680BD00BF0010024076
:101D4C00007000404004424290B58DB000AF786006
:101D5C00554B07F10C040FCB84E80F00534B1B8839
:101D6C003B8100237B620023FB6200233B62002348
:101D7C00FB610023BB627B68022B7FD0102B02D04F
:101D8C00012B48D08BE04A4B5B68FB61484B1B68CE
:101D9C0003F08073002B7FD0FB699B0C03F00F03C7
:101DAC0007F13002134413F8243C3B62FB6903F443
:101DBC008033002B18D03E4B5B685B0C03F00103A7
:101DCC0007F13002134413F8283C7B62FB6903F4DF
:101DDC008033002B0DD0374A7B6AB2FBF3F33A6A9F
:101DEC0002FB03F3FB6204E03B6A334A02FB03F39E
:101DFC00FB622F4B5B6803F48003B3F5800F02D1B9
:101E0C00FB6ABB6248E0FB6A5B002C4AA2FB032323
:101E1C005B08BB6240E0264B1B6AFB61FB6903F469
:101E2C004073B3F5807F08D1FB6903F00203002BEC
:101E3C0003D04FF40043BB621FE0FB6903F4407313
:101E4C00B3F5007F09D11A4B5B6A03F00203002B38
:101E5C0003D049F64043BB620FE0FB6903F44073C7
:101E6C00B3F5407F1AD1124B1B6803F40033002BDF
:101E7C0014D04FF22443BB6210E00FE0FFF77CFE5E
:101E8C0002460B4B5B689B0B03F0030301335B00B7
:101E9C00B2FBF3F3BB6202E000BF00E000BFBB6A21
:101EAC0018463437BD4690BDF428000804290008B4
:101EBC000010024000127A0000093D00ABAAAAAA49
:101ECC0080B582B000AF78607B68002B01D1012314
:101EDC003FE07B6893F83930DBB2002B06D17B688E
:101EEC00002283F83820786800F012FC7B682422EA
:101EFC0083F839207B681B687A681268D26822F4F0
:101F0C000052DA60786800F029F87B681B687A6800
:101F1C001268126922F490421A617B681B687A6815
:101F2C001268526922F02A025A617B681B687A682F
:101F3C001268D26842F40052DA607B680022DA63DD
:101F4C007B68202283F839207B68202283F83A2092
:101F5C00002318460837BD4680BD000090B585B0FB
:101F6C0000AF78607B681B687A681268126922F48B
:101F7C0040517A68D2680A431A617B689A687B6818
:101F8C001B691A437B685B691343BB607B681A68E7
:101F9C007B681B68DB6823F4B05323F00C03B9682F
:101FAC000B43D3607B681B687A681268526922F411
:101FBC0040717A6892690A435A617B681B682C4AA3
:101FCC00934203D1FFF7D8FDF86002E0FFF7C0FDA4
:101FDC00F8607B681968FA6813469B0013449A00F2
:101FEC001A447B685B689B00B2FBF3F3214AA2FBAB
:101FFC0003235B091801FA6813469B0013449A00EB
:10200C001A447B685B689B00B2FBF3F2194BA3FB91
:10201C0002435B09642404FB03F3D31A1B01323320
:10202C00144AA2FB03235B0903F0F0031844FA687B
:10203C0013469B0013449A001A447B685B689B0010
:10204C00B2FBF3F20B4BA3FB02435B09642404FBCE
:10205C0003F3D31A1B013233064AA2FB03235B0999
:10206C0003F00F0303448B6000BF1437BD4690BDD3
:10207C00003801401F85EB5180B500AF0A48FEF7D0
:10208C00BBF905210848FEF765FA0748FEF75CFB2B
:10209C0003469AB2054B1A8000224FF48051044833
:1020AC00FFF767F900BF80BD34000020300000202E
:1020BC000008014080B483B000AF0023FB800023F4
:1020CC003B6007E00A4B1A88FB881344FB803B6893
:1020DC0001333B603B68092BF4DDFB88054AA2FB0E
:1020EC000323DB089BB218460C37BD4680BC7047F7
:1020FC0030000020CDCCCCCC98B500AF4FF40041D3
:10210C000848FFF71FF903461C464FF48041054869
:10211C00FFF718F903469C4201D0012300E000238D
:10212C00184698BD000C014080B500AF4FF480718B
:10213C000548FFF707F90346002B01D1012300E006
:10214C000023184680BD00BF0008014098B500AFC1
:10215C004FF400510848FFF7F5F803461C464FF4BE
:10216C0080510548FFF7EEF803469C4201D001234D
:10217C0000E00023184698BD000C014080B500AF6C
:10218C00FFF7E4FF03461A460B4B1A70FFF7CCFF20
:10219C0003461A46084B5A70FFF7AEFF03461A4621
:1021AC00054B9A70044B9B78002B01D0012300E067
:1021BC000023184680BD00BF2800002080B500AF6A
:1021CC004FF400510A48FFF7BDF80346002B06D028
:1021DC0001224FF480610748FFF7CBF805E000229D
:1021EC004FF480610348FFF7C4F800BF80BD00BF07
:1021FC00000C01400008014080B500AF4FF40041D5
:10220C001448FFF79FF80346002B07D14FF4807159
:10221C001148FFF797F80346002B0CD001224FF41E
:10222C0000610D48FFF7A5F801224FF480610A48C0
:10223C00FFF79FF80BE000224FF400610648FFF710
:10224C0098F800224FF480610348FFF792F800BF22
:10225C0080BD00BF000C01400008014080B500AFFC
:10226C0000224FF400710D48FFF783F8FFF722FFAF
:10227C0003461A4640F6B1139A4206D901224FF48E
:10228C0000710648FFF775F805E000224FF4007165
:10229C000248FFF76EF800BF80BD00BF0008014088
:1022AC0080B500AF01224FF480510C48FFF761F864
:1022BC004FF4FA60FDF7A6FF00224FF48051074857
:1022CC00FFF757F84FF4FA60FDF79CFF01224FF42B
:1022DC0080510248FFF74DF800BF80BD0008014057
:1022EC0080B500AFFDF72CFF00F01EF800F0FCF8F5
:1022FC0000F072F800F0B0F800F0D8F80948FEF7DA
:10230C00B3FBFFF7B9FEFFF7A9FFFFF757FFFFF786
:10231C0073FFFFF733FF0346012BF2D1FFF7C0FF2A
:10232C00EFE700BF3400002080B594B000AF07F198
:10233C00280328220021184600F0B8FA07F11403EC
:10234C0000221A605A609A60DA601A613B1D002202
:10235C001A605A609A60DA600223BB620123BB6385
:10236C001023FB6302237B640023BB644FF4E01354
:10237C00FB6407F128031846FFF714F80346002BFB
:10238C0001D000F025F90F237B610223BB610023F0
:10239C00FB614FF480633B6200237B6207F1140303
:1023AC0001211846FFF77EFA0346002B01D000F0FE
:1023BC000FF902237B604FF44043FB603B1D184632
:1023CC00FFF70CFC0346002B01D000F001F900BF15
:1023DC005037BD4680BD000080B584B000AF3B1DBA
:1023EC0000221A605A609A60194B1A4A1A60184BEC
:1023FC004FF480729A60164B00221A73144B002211
:10240C001A75134B4FF46022DA61114B00225A609B
:10241C000F4B01221A610E48FDF716FF0346002BE5
:10242C0001D000F0D5F800237B600123BB600623AC
:10243C00FB603B1D19460648FEF792F90346002B3C
:10244C0001D000F0C5F800BF1037BD4680BD00BFFD
:10245C00340000200024014080B500AF114B124A1B
:10246C001A60104B4FF416525A600E4B00229A60B1
:10247C000C4B0022DA600B4B00221A61094B0C2228
:10248C005A61084B00229A61064B0022DA6105481A
:10249C00FFF716FD0346002B01D000F099F800BFA2
:1024AC0080BD00BFA80000200044004080B582B071
:1024BC0000AF0C4A0B4B5B6943F001035361094BB2
:1024CC005B6903F001037B607B68002200210B2019
:1024DC00FEF73BFC0B20FEF754FC00BF0837BD4653
:1024EC0080BD00BF0010024080B588B000AF07F17E
:1024FC00100300221A605A609A60DA60314A314B3C
:10250C009B6943F0100393612E4B9B6903F01003FE
:10251C00FB60FB682B4A2B4B9B6943F020039361B8
:10252C00284B9B6903F02003BB60BB68254A254BF5
:10253C009B6943F004039361224B9B6903F00403F2
:10254C007B607B681F4A1F4B9B6943F008039361B8
:10255C001C4B9B6903F008033B603B6800224FF463
:10256C00F0511948FEF705FF4FF470433B6100230F
:10257C007B610023BB6107F1100319461348FEF77A
:10258C0087FD4FF480733B6100237B610023BB61AB
:10259C0007F1100319460C48FEF77AFD4FF4F0537F
:1025AC003B6101237B610023BB610223FB6107F1CB
:1025BC00100319460448FEF76BFD00BF2037BD46DB
:1025CC0080BD00BF0010024000080140000C01401B
:1025DC0080B400AF00BFBD4680BC704780B485B0EE
:1025EC0000AF154A144B9B6943F001039361124BE6
:1025FC009B6903F00103BB60BB680F4A0E4BDB69A0
:10260C0043F08053D3610C4BDB6903F080537B6048
:10261C007B680A4B5B68FB60FB6823F0E063FB6044
:10262C00FB6843F08063FB60044AFB68536000BFA7
:10263C001437BD4680BC70470010024000000140BA
:10264C0080B588B000AF786007F1100300221A60E3
:10265C005A609A60DA607B681B68284A934249D1B9
:10266C00274A274B9B6943F400739361244B9B6966
:10267C0003F40073FB60FB68214A214B9B6943F018
:10268C00040393611E4B9B6903F00403BB60BB689E
:10269C0003233B6103237B6107F11003194619489F
:1026AC00FEF7F6FC184B194A1A60174B00225A60B9
:1026BC00154B00229A60144B8022DA60124B4FF4B7
:1026CC0080721A61104B4FF480625A610E4B2022BB
:1026DC009A610D4B0022DA610B48FEF76DFB034645
:1026EC00002B01D0FFF774FF7B68074A1A62064A79
:1026FC007B68536200BF2037BD4680BD002401407B
:10270C000010024000080140640000200800024054
:10271C0080B588B000AF786007F1100300221A6012
:10272C005A609A60DA607B681B681B4A93422FD10F
:10273C001A4A1A4BDB6943F40033D361174BDB693C
:10274C0003F40033FB60FB68144A144B9B6943F0A1
:10275C0004039361114B9B6903F00403BB60BB68DA
:10276C0004233B6102237B610323FB6107F110030C
:10277C0019460B48FEF78CFC08233B6100237B6158
:10278C000023BB6107F1100319460548FEF780FCD6
:10279C0000BF2037BD4680BD004400400010024001
:1027AC000008014080B400AF00BFBD4680BC70473C
:1027BC0080B400AFFEE780B400AFFEE780B400AF9A
:1027CC00FEE780B400AFFEE780B400AF00BFBD46AB
:1027DC0080BC704780B400AF00BFBD4680BC704762
:1027EC0080B400AF00BFBD4680BC704780B500AF61
:1027FC00FDF7ECFC00BF80BD80B500AF0248FEF7D2
:10280C0035FB00BF80BD00BF6400002080B400AF6A
:10281C0000BFBD4680BC7047002103E00B4B5B58EA
:10282C00435004310A480B4B42189A42F6D30A4AD9
:10283C0002E0002342F8043B084B9A42F9D3FFF71D
:10284C00E5FF00F00FF8FFF74BFD70472829000853
:10285C00000000200C0000200C000020E8000020EC
:10286C00FEE7000070B500250C4E0D4CA41BA41007
:10287C00A54209D100F022F800250A4E0A4CA41BEF
:10288C00A410A54205D170BD56F8253098470135E6
:10289C00EEE756F8253098470135F2E72029000875
:1028AC002029000820290008242900080346024496
:1028BC00934200D1704703F8011BF9E7F8B500BF4C
:1028CC00F8BC08BC9E467047F8B500BFF8BC08BC05
:0428DC009E4670475D
:1028E00002030405060708090A0B0C0D0E0F101051
:1028F0000102000002030405060708090A0B0C0D7B
:102900000E0F101001020000000000000000000087
:102910000102030406070809000000000102030485
:042920003101000879
:042924000D01000899
:0C29280010000000010000000024F4007A
:0400000508002825A2
:00000001FF
