:020000040800F2
:10000000005000209529000825290008272900080C
:10001000292900082B2900082D29000800000000CC
:100020000000000000000000000000002F29000870
:100030003129000800000000332900083529000894
:10004000DD290008DD290008DD290008DD29000878
:10005000DD290008DD290008DD290008DD29000868
:10006000DD290008DD290008DD29000839290008FC
:10007000DD290008DD290008DD290008DD29000848
:10008000DD290008DD290008DD290008DD29000838
:10009000DD290008DD290008DD290008DD29000828
:1000A000DD290008DD290008DD290008DD29000818
:1000B000DD290008DD290008DD290008DD29000808
:1000C000DD290008DD290008DD290008DD290008F8
:1000D000DD290008DD290008DD290008DD290008E8
:1000E000DD290008DD290008DD29000800000000E6
:1000F0000000000000000000000000000000000000
:0C01000000000000000000005FF808F1A3
:1001100010B5054C237833B9044B13B10448AFF341
:1001200000800123237010BD70000020000000003B
:100130009C32000808B5034B1BB103490348AFF3D9
:10014000008008BD00000000740000209C32000800
:1001500081F0004102E000BF83F0004330B54FEA78
:1001600041044FEA430594EA050F08BF90EA020FE5
:100170001FBF54EA000C55EA020C7FEA645C7FEA78
:10018000655C00F0E2804FEA5454D4EB5555B8BF9B
:100190006D420CDD2C4480EA020281EA030382EA0C
:1001A000000083EA010180EA020281EA0303362D9E
:1001B00088BF30BD11F0004F4FEA01314FF4801C71
:1001C0004CEA113102D0404261EB410113F0004F83
:1001D0004FEA03334CEA133302D0524263EB43033A
:1001E00094EA050F00F0A780A4F10104D5F1200ED8
:1001F0000DDB02FA0EFC22FA05F2801841F1000133
:1002000003FA0EF2801843FA05F359410EE0A5F106
:1002100020050EF1200E012A03FA0EFC28BF4CF037
:10022000020C43FA05F3C01851EBE37101F00045ED
:1002300007D54FF0000EDCF1000C7EEB00006EEBFA
:100240000101B1F5801F1BD3B1F5001F0CD3490884
:100250005FEA30004FEA3C0C04F101044FEA4452DB
:1002600012F5800F80F09A80BCF1004F08BF5FEA62
:10027000500C50F1000041EB045141EA050130BD42
:100280005FEA4C0C404141EB010111F4801FA4F1E5
:100290000104E9D191F0000F04BF01460020B1FA3A
:1002A00081F308BF2033A3F10B03B3F120020CDA72
:1002B0000C3208DD02F1140CC2F10C0201FA0CF050
:1002C00021FA02F10CE002F11402D8BFC2F1200CB5
:1002D00001FA02F120FA0CFCDCBF41EA0C0190406B
:1002E000E41AA2BF01EB0451294330BD6FEA0404B4
:1002F0001F3C1CDA0C340EDC04F11404C4F120029F
:1003000020FA04F001FA02F340EA030021FA04F3B0
:1003100045EA030130BDC4F10C04C4F1200220FA07
:1003200002F001FA04F340EA0300294630BD21FA45
:1003300004F0294630BD94F0000F83F4801306BF0B
:1003400081F480110134013D4EE77FEA645C18BFFF
:100350007FEA655C29D094EA050F08BF90EA020F96
:1003600005D054EA000C04BF1946104630BD91EA8E
:10037000030F1EBF0021002030BD5FEA545C05D191
:100380004000494128BF41F0004130BD14F58004D0
:100390003CBF01F5801130BD01F0004545F0FE4144
:1003A00041F470014FF0000030BD7FEA645C1ABF79
:1003B000194610467FEA655C1CBF0B46024650EAB0
:1003C000013406BF52EA033591EA030F41F40021DC
:1003D00030BD00BF90F0000F04BF0021704730B562
:1003E0004FF4806404F132044FF000054FF0000137
:1003F00050E700BF90F0000F04BF0021704730B5F8
:100400004FF4806404F1320410F0004548BF4042CC
:100410004FF000013EE700BF42004FEAE2014FEA21
:1004200031014FEA02701FBF12F07F4393F07F4FFC
:1004300081F06051704792F0000F14BF93F07F4F2E
:10044000704730B54FF4607401F0004521F0004171
:1004500020E700BF50EA010208BF704730B54FF0F7
:1004600000050AE050EA010208BF704730B511F0FC
:10047000004502D5404261EB41014FF4806404F134
:1004800032045FEA915C3FF4DCAE4FF003025FEAB6
:10049000DC0C18BF03325FEADC0C18BF033202EB3E
:1004A000DC02C2F1200300FA03FC20FA02F001FA98
:1004B00003FE40EA0E0021FA02F11444C1E600BF37
:1004C00070B54FF0FF0C4CF4E06C1CEA11541DBFEA
:1004D0001CEA135594EA0C0F95EA0C0F00F0DEF8B5
:1004E0002C4481EA030621EA4C5123EA4C5350EA9A
:1004F000013518BF52EA033541F4801143F48013EB
:1005000038D0A0FB02CE4FF00005E1FB02E506F07B
:100510000042E0FB03E54FF00006E1FB03569CF0D0
:10052000000F18BF4EF0010EA4F1FF04B6F5007FD6
:1005300064F5407404D25FEA4E0E6D4146EB060648
:1005400042EAC62141EA55514FEAC52040EA5E50D1
:100550004FEACE2EB4F1FD0C88BFBCF5E06F1ED87B
:10056000BEF1004F08BF5FEA500E50F1000041EBB2
:10057000045170BD06F0004646EA010140EA02005F
:1005800081EA0301B4EB5C04C2BFD4EB0C0541EA81
:10059000045170BD41F480114FF0000E013C00F396
:1005A000AB8014F1360FDEBF002001F0004170BDBA
:1005B000C4F10004203C35DA0C341BDC04F11404D3
:1005C000C4F1200500FA05F320FA04F001FA05F25F
:1005D00040EA020001F0004221F0004110EBD3702C
:1005E00021FA04F642EB06015EEA430E08BF20EA58
:1005F000D37070BDC4F10C04C4F1200500FA04F3FB
:1006000020FA05F001FA04F240EA020001F000418C
:1006100010EBD37041F100015EEA430E08BF20EAFF
:10062000D37070BDC4F1200500FA05F24EEA020E47
:1006300020FA04F301FA05F243EA020321FA04F076
:1006400001F0004121FA04F220EA020000EBD3702D
:100650005EEA430E08BF20EAD37070BD94F0000F2D
:100660000FD101F00046400041EB010111F4801F61
:1006700008BF013CF7D041EA060195F0000F18BF12
:10068000704703F00046520043EB030313F4801F4E
:1006900008BF013DF7D043EA0603704794EA0C0F08
:1006A0000CEA135518BF95EA0C0F0CD050EA41061E
:1006B00018BF52EA4306D1D181EA030101F000419B
:1006C0004FF0000070BD50EA410606BF10461946C3
:1006D00052EA430619D094EA0C0F02D150EA0136CF
:1006E00013D195EA0C0F05D152EA03361CBF104610
:1006F00019460AD181EA030101F0004141F0FE41AF
:1007000041F470014FF0000070BD41F0FE4141F432
:10071000780170BD70B54FF0FF0C4CF4E06C1CEA32
:1007200011541DBF1CEA135594EA0C0F95EA0C0FE7
:1007300000F0A7F8A4EB050481EA030E52EA0335A2
:100740004FEA013100F088804FEA03334FF08055C3
:1007500045EA131343EA12634FEA022245EA1115F0
:1007600045EA10654FEA00260EF000419D4208BFA1
:10077000964244F1FD0404F5407402D25B084FEA4E
:100780003202B61A65EB03055B084FEA32024FF4FA
:1007900080104FF4002CB6EB020E75EB030E22BF57
:1007A000B61A754640EA0C005B084FEA3202B6EB17
:1007B000020E75EB030E22BFB61A754640EA5C00C6
:1007C0005B084FEA3202B6EB020E75EB030E22BF56
:1007D000B61A754640EA9C005B084FEA3202B6EB57
:1007E000020E75EB030E22BFB61A754640EADC0016
:1007F00055EA060E18D04FEA051545EA16754FEA78
:1008000006164FEAC30343EA52734FEAC2025FEA95
:100810001C1CC0D111F4801F0BD141EA00014FF024
:1008200000004FF0004CB6E711F4801F04BF0143F5
:100830000020B4F1FD0C88BFBCF5E06F3FF6AFAE11
:10084000B5EB030C04BFB6EB020C5FEA500C50F1A1
:10085000000041EB045170BD0EF0004E4EEA113124
:1008600014EB5C04C2BFD4EB0C0541EA045170BD2B
:1008700041F480114FF0000E013C90E645EA060E6F
:100880008DE60CEA135594EA0C0F08BF95EA0C0F9D
:100890003FF43BAF94EA0C0F0AD150EA01347FF4E5
:1008A00034AF95EA0C0F7FF425AF104619462CE7BC
:1008B00095EA0C0F06D152EA03353FF4FDAE10461F
:1008C000194622E750EA410618BF52EA43067FF470
:1008D000C5AE50EA41047FF40DAF52EA43057FF400
:1008E000EBAE12E74FF0FF3C06E000BF4FF0010C0B
:1008F00002E000BF4FF0010C4DF804CD4FEA410C6F
:100900007FEA6C5C4FEA430C18BF7FEA6C5C1BD03B
:1009100001B050EA410C0CBF52EA430C91EA030FBC
:1009200002BF90EA020F0020704710F1000F91EA19
:10093000030F58BF994208BF90422CBFD8176FEAE7
:10094000E37040F0010070474FEA410C7FEA6C5CB5
:1009500002D150EA013C07D14FEA430C7FEA6C5CBC
:10096000D6D152EA033CD3D05DF8040B704700BFE8
:100970008446104662468C461946634600E000BF36
:1009800001B5FFF7B7FF002848BF10F1000F01BD08
:100990004DF808EDFFF7F4FF0CBF012000205DF8D3
:1009A00008FB00BF4DF808EDFFF7EAFF34BF012058
:1009B00000205DF808FB00BF4DF808EDFFF7E0FFF1
:1009C00094BF012000205DF808FB00BF4DF808ED42
:1009D000FFF7CEFF94BF012000205DF808FB00BFA9
:1009E0004DF808EDFFF7C4FF34BF012000205DF88B
:1009F00008FB00BF38B50E4B054618784FF47A73E4
:100A0000B3FBF0F30B4A1068B0FBF3F000F0C8FA48
:100A1000044658B90F2D09D8024629464FF0FF3039
:100A200000F07CFA044B20461D6038BD012038BD23
:100A3000000000200800002004000020074A08B53C
:100A40001368032043F01003136000F055FA0020F0
:100A5000FFF7D0FF01F082FE002008BD0020024019
:100A6000034A044B11681B780B441360704700BFA6
:100A70009C00002000000020014B1868704700BF58
:100A80009C00002038B50446FFF7F6FF0546631CBE
:100A90001EBF044B1B78E418FFF7EEFF401B844297
:100AA000FAD838BD000000207047436A10B59A6A32
:100AB00012F0500F1BD19A6A42F400729A621A68BF
:100AC000926802F46022B2F5602F0CD11A7B52B901
:100AD0009A6A22F480729A629A6AD2045EBF9A6A13
:100AE00042F001029A621846FFF7DEFF10BD1B6A52
:100AF000BDE810401B6B1847704708B5406AFFF708
:100B0000FBFF08BD7047406A08B5836A43F04003A5
:100B10008362C36A43F00403C362FFF7F3FF08BDB7
:100B2000002373B5019390F82430012B74D0012376
:100B30004D6880F82430062D02684FEA85030C6862
:100B400025D82B441F25566B053B9D4026EA0505FD
:100B500004FA03F32B435363092C4FEA44038D68D3
:100B60002FD907262344D1681E3B9E4021EA060167
:100B700005FA03F30B43D360A4F11003012B2BD927
:100B80000023002280F82420184602B070BD0C2DEE
:100B90000BD82B441F25166B233B9D4026EA0505E9
:100BA00004FA03F32B431363D6E72B441F25D66ABD
:100BB000413B9D4026EA050504FA03F32B43D3622B
:100BC000CAE70726116923449E4021EA060105FA77
:100BD00003F30B431361CFE7104B9A4216D193688E
:100BE0001B02CDD49368102C43F400039360C7D14B
:100BF0000B4B0C4A1B68B3FBF2F20A2353430193DD
:100C0000019B002BBCD0019B013BF8E7836A43F0BA
:100C1000200383620123B4E70223B5E700240140E7
:100C20000800002040420F00002373B501930368C1
:100C300004469A68D20702D5002002B070BD9A68B7
:100C400042F001029A60124B124A1B68B3FBF2F3A6
:100C50000193019BC3B9FFF70FFF064623689D6808
:100C600015F00105E8D1FFF707FF801B0228F5D931
:100C7000A36A84F8245043F01003A362E36A0120BE
:100C800043F00103E362D8E7019B013BE0E700BFCB
:100C90000800002040420F002DE9D8419046404B0B
:100CA000026804469A420F4602D03E498A4203D166
:100CB0005B6813F4702F6ED194F82430012B6CD044
:100CC0000123204684F82430FFF7AEFF06460028B3
:100CD0005DD1A06A216820F47060324B20F00100E1
:100CE00040F480709942A06204D12D4A536813F4F5
:100CF000702F3ED1A36A23F48013A3624B685A0578
:100D000005D5A36A23F4405343F48053A362A36A36
:100D1000206A13F4805318BFE36A3A4618BF23F0E1
:100D20000603E362002384F824301F4B4C318362B6
:100D30001E4BC3621E4B03636FF0020341F84C3C31
:100D400051F8443C43F4807341F8443C434600F07E
:100D50006DF923689A6802F46022B2F5602F9A68F0
:100D60000CBF42F4A00242F480129A603046BDE803
:100D7000D881A36A43F48013A36253685B0541BF23
:100D8000A06A20F4405040F48050A062BFE70023E6
:100D900084F82430EAE70126E8E70226E6E700BF08
:100DA0000024014000280140AB0A0008FB0A0008AB
:100DB000070B000838B5036804469A68D20701D4C7
:100DC000002038BD9A6822F001029A60FFF754FEB5
:100DD000054623689B68DB07F2D5FFF74DFE401BF5
:100DE0000228F6D9A36A012043F01003A362E36A44
:100DF00043F00103E36238BD70B50446002871D0AA
:100E0000836A23B9C36280F8243001F0C9FC20460C
:100E1000FFF7D0FFA36A13F0100FA36A64D1002874
:100E200062D1E16923F48853626823F0020343F03E
:100E300002030A43A168A362237BB1F5807F42EAE3
:100E4000430238D0012914BF06464FF48076257D31
:100E5000012D07D1002B30D1A369013B46EA433570
:100E600045F400662368B1F5807F5D6825F4694527
:100E700045EA06055D609E681D4D05EA060545EAE2
:100E800002059D6001D0012920D1216901390905A0
:100E9000DD6A25F470052943D9629968154B0B402A
:100EA0009A4215D10023E362A36A23F0030343F0BF
:100EB0000103A36270BD0E46C9E7A36A43F0200395
:100EC000A362E36A43F00103E362CBE70021DFE7BB
:100ED000A36A23F0120343F01003A362E36A43F012
:100EE0000103E362012070BD43F01003A362F9E740
:100EF000FDF7E1FFFE0E1FFF074A0002D36800F472
:100F0000E06023F4E0631B041B0C43F0BF6343F475
:100F100000330343D360704700ED00E0174B30B55A
:100F2000DC68C4F30224C4F10703251D042B28BF89
:100F30000423062D4FF0010598BF002405FA03F3A2
:100F400003F1FF3388BF033C1940A14005FA04F4C4
:100F5000013C2240002842EA01024FEA0212A9BFE6
:100F600000F16040064BD2B200F56140BBBF00F01B
:100F70000F00D2B280F800231A5430BD00ED00E01B
:100F800014ED00E0002808DB0123420900F01F00F7
:100F900003FA00F0014B43F82200704700E100E043
:100FA0000138B0F1807F0AD2F021064B064A586022
:100FB00082F823100020072298601A6070470120F1
:100FC000704700BF10E000E000ED00E010B530B366
:100FD00014220168134B84680B44B3FBF2F39B00AB
:100FE0000364114B0A68C363436822F47F522343AE
:100FF000C46822F030022343046923434469234335
:1010000084692343C469234313430B6001220023F3
:1010100080F82120836380F82030184610BD01201D
:1010200010BD00BFF8FFFDBF00000240F0B590F812
:101030002040012C35D0012490F8215080F8204028
:10104000A5424FF000064FF0020428D180F821405D
:10105000046886632668076C26F001062660C66B66
:10106000BD407560636043680568102BC36A0BBFA1
:10107000A260A160E160E2604BB1236843F00E031F
:1010800023602B68002043F001032B60F0BD236830
:1010900023F004032360236843F00A03F0E780F899
:1010A00020600220F0BD000070B40425C66B026C05
:1010B0003468036895402542196832D04D0730D511
:1010C0001A6896065EBF1A6822F004021A603E4A49
:1010D000934219D01432934218D01432934217D04D
:1010E0001432934217D01432934217D014329342E1
:1010F0000CBF4FF480034FF08063344A5360C36ADF
:10110000002B5ED070BC18470423F6E74023F4E7B9
:101110004FF48063F1E74FF48043EEE74FF4802310
:10112000EBE702259540254235D08D0733D51A6867
:10113000940606D41A6822F00A021A60012280F886
:101140002120214A934219D01432934218D01432EC
:10115000934217D01432934217D01432934217D0CF
:10116000143293420CBF4FF400134FF00073174A30
:101170005360002380F82030836AC1E70223F6E73A
:101180002023F4E74FF40073F1E74FF40053EEE748
:101190004FF40033EBE708259540254211D00907AD
:1011A0000FD5196821F00E011960012303FA02F22C
:1011B0007260836380F82130002380F82030036B55
:1011C0009EE770BC704700BF08000240000002406C
:1011D0002DE9F74F00242646664BDFF8A8E1DFF83B
:1011E000A8C10A6832FA06F502D103B0BDE8F08F53
:1011F0004FF0010808FA06F802EA080290457FD18C
:101200004D68122D00F0AA8000F28380022D00F0BC
:10121000A28077D8002D00F08980012D00F0998000
:101220004FF00F09FF2A93BF824606F18045083D23
:10123000D0F800B092BFB500D0F804B0AD0009FA04
:1012400005F82BEA080804FA05F588BF00F1040A3E
:1012500048EA0505CAF80050D1F804A01AF0805FEA
:101260004ED0454D444FAD6926F0030845F00105C9
:10127000BD61BD6908F1804805F00105019508F5DB
:10128000803806F0030B019D4FEA8B0BD8F808500D
:1012900009FA0BF925EA0909384DA84263D005F58A
:1012A0008065A84261D005F58065A8425FD005F54C
:1012B0008065A8420CBF0325042505FA0BF545EA15
:1012C0000905C8F808501D681AF4803F14BF15437B
:1012D00095431D605D681AF4003F14BF15439543A4
:1012E0005D609D681AF4801F14BF154395439D608F
:1012F000DD681AF4001F14BF2A4325EA0202DA60EF
:1013000001366EE7032D22D0112D89D1CC6804342B
:1013100086E71B4FBD4209D012D8DFF870904D45CB
:1013200004D009F580394D457FF47AAF8C68C4B19B
:10133000012C0CBFC0F81080C0F8148008246FE79F
:101340007545F3D06545F1D0DFF84490EBE7002414
:1013500066E7CC6864E7CC68083461E7CC680C3495
:101360005EE704245CE70025A7E70125A5E7022541
:10137000A3E700BF00040140001002400008014044
:101380000000211000003110000032100000111088
:10139000000022108368194214BF0120002070470A
:1013A0000AB1016170470904FBE700002DE9F34130
:1013B000054608B901203CE00368DB0710D42B6820
:1013C0009F075DD42B68190700F194802B685A079A
:1013D00000F1BE80E869002840F02C81002028E060
:1013E0008F4C636803F00C03042B07D0636803F091
:1013F0000C03082B09D16368DE0306D523689C0320
:10140000DDD56B68002BDAD1D4E76B68B3F5803F8C
:1014100012D1236843F480332360FFF72DFB064687
:1014200023689803CBD4FFF727FB801B6428F7D9E8
:10143000032002B0BDE8F0819BB9236823F4803318
:101440002360236823F480232360FFF715FB0646FF
:1014500023689903B3D5FFF70FFB801B6428F7D9E6
:10146000E6E7B3F5A02F236803D143F4802323607C
:10147000CFE723F480332360236823F48023CBE772
:10148000674C636813F00C0F07D0636803F00C031C
:10149000082B10D16368DA030DD423689B0702D5AB
:1014A0002B69012B86D123686A6923F0F80343EA8C
:1014B000C203236086E72A695A4B6AB101221A6087
:1014C000FFF7DAFA064623689F07ECD4FFF7D4FA51
:1014D000801B0228F7D9ABE71A60FFF7CDFA064662
:1014E000236898077FF56EAFFFF7C6FA801B0228C6
:1014F000F6D99DE7AA694A4C4B4BDAB101221A6032
:10150000FFF7BAFA0646636A9B070DD54FF4FA5205
:10151000464B1B68B3FBF2F3019300BF019B5A1EBD
:101520000192002BF9D151E7FFF7A6FA801B0228A0
:10153000E9D97DE71A60FFF79FFA0646636A9F07BD
:101540007FF544AFFFF798FA801B0228F6D96FE7C2
:10155000334CE369D80024D40127E36943F0805376
:10156000E361E36903F080530093009B304E3368DE
:10157000D90518D5EB68012B26D1236A43F0010366
:101580002362FFF779FA41F288368046236A9B0787
:101590003FD5002F3FF41EAFE36923F08053E36192
:1015A00018E70027E2E7336843F480733360FFF7FE
:1015B00063FA80463368DA05DCD4FFF75DFAA0EB06
:1015C00008006428F6D933E7ABB9236A41F28838BA
:1015D00023F001032362236A23F004032362FFF74D
:1015E0004BFA0646236A9807D3D5FFF745FA801BC6
:1015F0004045F7D91CE7052B236A03D143F00403C8
:101600002362BAE723F001032362236A23F0040371
:10161000B6E7FFF731FAA0EB0800B042B6D907E70A
:1016200000100240000042428004424208000020B4
:10163000007000402A4B5A681C4602F00C02082A2F
:101640003DD00023274E022833602BD1FFF714FA38
:101650000746236899011FD42B6AB3F5803F05D153
:101660006268A96822F400320A436260696A6268AB
:101670000B4322F474121343636001233360FFF7BA
:10168000FBF9054623689A013FF5A8AEFFF7F4F988
:10169000401B0228F6D9CBE6FFF7EEF9C01B022863
:1016A000D7D9C5E6FFF7E8F9054623689B017FF522
:1016B00095AEFFF7E1F9401B0228F6D9B8E60128FC
:1016C0003FF4B7AE58682B6A00F480329A427FF438
:1016D00071AE6B6A00F47010C01A18BF0120A8E642
:1016E000001002406000424230B5194B87B002AC96
:1016F00003F11005224618685968083303C2AB424B
:101700001446F7D101238DF80430022311498DF8D6
:1017100005304B6803F00C02082A17D1C3F383424B
:1017200006A80244DB0312F8102C0CD54B680A48BB
:10173000C3F34043504306AA134413F8143CB0FBD0
:10174000F3F007B030BD05485043FAE70248F8E728
:10175000B43200080010024000127A0000093D0077
:101760002DE9F0410D46044610B90120BDE8F08195
:10177000454A136803F007038B4229D321688E077B
:1017800031D4CA0744D4404A136803F007039D428A
:1017900067D322683D4D12F0040F6ED1130706D5B2
:1017A0006B68226923F4605343EAC2036B60FFF75E
:1017B0009BFF6B68364AC3F30313D35CD840354BA9
:1017C0001860354B1868FFF715F90020BDE8F08167
:1017D000136823F007030B431360136803F0070338
:1017E0009942C2D1CAE7294B11F0040F1EBF5A68B3
:1017F00042F4E0625A60080742BF5A6842F46052FD
:101800005A605A68A06822F0F00202435A60B8E7B2
:1018100062681E4E012A33681BD113F4003FA4D026
:10182000736841F2883823F0030313437360FFF7B2
:1018300023F907467368626803F00C03B3EB820F69
:10184000A1D0FFF719F9C01B4045F3D90320BDE82B
:10185000F081022A02D113F0007FE0E713F0020FBB
:10186000DDE7136823F007032B431360136803F0CD
:1018700007039D427FF479AF8BE76B68E16823F43F
:10188000E0630B436B6089E70020024000100240D8
:10189000D63200080800002004000020044B054A4E
:1018A0005B68C3F30223D35C034A1068D8407047D7
:1018B00000100240E632000808000020044B054AF0
:1018C0005B68C3F3C223D35C034A1068D8407047F7
:1018D00000100240E63200080800002003682DE9ED
:1018E000F341D907054620D5354CE369DA0032D4F7
:1018F0000127E36943F08053E361E36903F0805318
:101900000193019B2F4E3368DB0526D5236A13F420
:10191000407336D1236A6A6823F440731343236209
:101920001FB1E36923F08053E3612868830706D57C
:10193000234AA968536823F440430B43536010F0D3
:1019400010001BD01E4AE9685368002023F480036E
:101950000B43536012E00027D4E7336843F48073ED
:101960003360FFF789F880463368D805CED4FFF797
:1019700083F8A0EB08006428F6D9032002B0BDE884
:10198000F0816A6802F440729342C3D001200E4A8B
:10199000236A1060002023F4407110602162D9078F
:1019A000B8D5FFF769F841F288380646236A9A07E6
:1019B000B0D4FFF761F8801B4045F7D9DDE700BFE1
:1019C000001002400070004040044242036A70B5BB
:1019D00023F001030362036A446882690D6822F000
:1019E00073022A438D6823F002032B430A4DA84259
:1019F0000BD1CD6823F008032B438E694D6924F485
:101A00004074354323F004032C43446082614A68E8
:101A10004263036270BD00BF002C0140036A70B5D1
:101A200023F480730362036A4468C2690D6822F07C
:101A300073022A438D6823F4007343EA05230B4D98
:101A4000A8420DD1CD6823F4006343EA05238E69D3
:101A50004D6924F44054354323F4806344EA05146B
:101A60004460C2614A68C263036270BD002C0140D9
:101A7000036A30B523F480530362036A4468C26981
:101A80000D6822F4E64242EA05228D6823F40053F1
:101A900043EA0533064DA84202BF4D6924F4804451
:101AA00044EA85144460C2614A680264036230BD3E
:101AB000002C014090F83D30012B1CD102230F4A2D
:101AC00080F83D30036893420AD0B3F1804F07D0CD
:101AD000A2F59432934203D002F58062934204D17E
:101AE0009A6802F00702062A03D01A6842F001023F
:101AF0001A60002070470120704700BF002C014091
:101B00001A4A036890420AD0B0F1804F07D0A2F57C
:101B10009432904203D002F58062904215D14A6817
:101B200023F070031343114A90420AD0B0F1804F62
:101B300007D0A2F59432904203D002F58062904221
:101B400003D1CA6823F4407313434A6923F0800326
:101B5000134303608B68C3620B688362034B984234
:101B600004BF0B690363012343617047002C0140EC
:101B700010B5044630B390F83D3003F0FF021BB9B6
:101B800080F83C2000F058FE0223206884F83D30A5
:101B9000211DFFF7B5FF0123002084F8463084F8AB
:101BA0003E3084F83F3084F8403084F8413084F887
:101BB000423084F8433084F8443084F8453084F867
:101BC0003D3010BD012010BD036A70B523F0100335
:101BD0000362036A446882690D6822F4E64242EABD
:101BE00005228D6823F0200343EA05130B4DA8421C
:101BF0000DD1CD6823F0800343EA05138E694D694A
:101C000024F44064354323F0400344EA85044460EF
:101C100082614A688263036270BD00BF002C01408C
:101C200038B590F83C300446012B54D0012380F89D
:101C30003C300C2A18D8DFE802F0071717171B17DB
:101C400017172C1717173D000068FFF7BFFE236812
:101C500009699A6942F008029A619A6922F00402BD
:101C60009A619A690A439A61002084F83C0038BD61
:101C70000068FFF7A9FF236809699A6942F40062C6
:101C80009A619A6922F480629A619A6942EA012211
:101C9000E9E70068FFF7C2FE23680969DA6942F0E4
:101CA0000802DA61DA6922F00402DA61DA690A43C9
:101CB000DA61D9E70068FFF7DBFE23680969DA69B2
:101CC00042F40062DA61DA6922F48062DA61DA6988
:101CD00042EA0122ECE7022038BD10B50124036A74
:101CE00001F01F018C4023EA04030362036A8A4067
:101CF0001A43026210BD000010B5044629B990F8DD
:101D00003E30012B1DD0012010BD042907D190F8D1
:101D10003F30012BF7D1022380F83F3014E008292F
:101D200007D190F84030012BEDD1022380F84030EC
:101D30000AE090F84130012BE5D1022380F84130D0
:101D400002E0022380F83E3001222068FFF7C5FF41
:101D500023680E4A93420AD15A6C42F400425A64F4
:101D60009A6802F00702062A0BD1002010BDB3F1D9
:101D7000804FF5D0064A9342F2D002F5806293423A
:101D8000EED01A6842F001021A60EEE7002C014022
:101D90000004004090F83C3030B5012B4FF00203B6
:101DA00025D0012280F83D3003680D685C6880F81A
:101DB0003C2024F070042C439A685C600D4CA342D4
:101DC0000AD0B3F1804F07D0A4F59434A34203D0D6
:101DD00004F58064A34204D1496822F080020A43DA
:101DE0009A60012380F83D30002380F83C3018468B
:101DF00030BD00BF002C014038B504460368C168FF
:101E00001A6922F440520A431A6182680069D9684B
:101E10000243606921F4B05121F00C0102430A43EE
:101E2000DA605A69A16922F440720A435A610E4A83
:101E3000934215D1FFF742FD19235843636864228A
:101E40009B00B0FBF3F0B0FBF2F102FB11031B01AE
:101E50003233B3FBF2F3256803EB0113AB6038BDFB
:101E6000FFF71CFDE8E700BF00380140F8B5044665
:101E70000E4617461D4621680B6836EA030301D15A
:101E80000020F8BD6B1CF7D095B923680320DA68F1
:101E900022F4D072DA605A6922F001025A612023DA
:101EA00084F8393084F83A30002384F83830F8BDAB
:101EB000FEF7E2FDC01B8542DDD2E6E710B5044621
:101EC00040B390F8393003F0FF021BB980F8382096
:101ED00000F0ECFC2423226884F83930D3682046D3
:101EE00023F40053D360FFF787FF236800201A69AB
:101EF00022F490421A615A6922F02A025A61DA6881
:101F000042F40052DA602023E06384F8393084F828
:101F10003A3010BD012010BD2DE9F843984690F8E5
:101F200039300446202B0E4691464CD1002947D02B
:101F3000002A45D090F83830012B44D001230025E9
:101F400080F838302123C56380F83930FEF794FDDE
:101F5000A3680746B3F5805FA4F82490A4F8269000
:101F600003D123690BB935461E46002384F8383067
:101F7000E38C9BB25BB943463A4640212046FFF7CB
:101F800075FF58B9202384F83930BDE8F8834346FB
:101F90003A4680212046FFF769FF10B10320BDE8D3
:101FA000F88322684EB935F8023BC3F30803536047
:101FB000E38C013B9BB2E384DAE716F8013BF6E7DA
:101FC0000120BDE8F8830220BDE8F883044B18889F
:101FD0000A2300EB8000400080B2B0FBF3F07047B2
:101FE000A0010020044B58880A2300EB8000400029
:101FF00080B2B0FBF3F07047A001002070B5FEF78F
:102000003BFD0546184E194C4FF400513046FFF782
:10201000C1F940B3A388B3F5617F00D870BDFEF766
:102020002BFD40F6B733401B9842EDD90122042125
:102030000F48FFF7B5F94FF4FA60FEF723FD0022D1
:1020400004210B48FFF7ACF9074C4FF40051204630
:10205000FFF7A0F90028F8D13220FEF713FD032284
:10206000044B1A7070BD70BD000C0140A00100202F
:10207000000801408E000020032202490248FEF7BA
:102080000BBE00BFA00100202801002010B50821D0
:1020900013480022FFF784F94FF480511148FFF7ED
:1020A00079F930B9104B18700F4B1A780F4B1A7022
:1020B00010BD4FF480510B48FFF76CF90028F3D0A6
:1020C000084C4FF480512046FFF764F90028F8D1FE
:1020D0003220FEF7D7FC0122034B1A70E4E700BF61
:1020E00000080140000C01408E0000208C00002000
:1020F00010B5402101221048FFF752F93220FEF7B7
:10210000C1FC4FF400710D48FFF744F910B90222E9
:102110000B4B1A7010210848FFF73CF9094C40B1ED
:1021200002231E202370FEF7ADFC2278064B1A70A6
:1021300010BD01232370F8E7000C014000080140A6
:102140008D0000208E0000208C00002010B50122A0
:1021500008212148FFF724F9002240211E48FFF7FB
:102160001FF9002280211C48FFF71AF90022802164
:102170001A48FFF715F93220FEF784FC4FF480610E
:102180001548FFF707F9012804BF0322144B4FF449
:102190000041114808BF1A70FFF7FCF8012804BF7E
:1021A00004220F4B4FF400410B4808BF1A70FFF791
:1021B000F1F80C4C68B900F180404FF4806100F5F3
:1021C0008430FFF7E7F820B920702278064B1A70A8
:1021D00010BD04232370F8E700080140000C014003
:1021E0008D0000208E0000208C00002038B50122D8
:1021F00008211A48FFF7D4F84FF4FA60FEF742FCC2
:10220000002208211548FFF7CBF84FF4FA60FEF7DB
:1022100039FC012208211148FFF7C2F80422104CB2
:10222000104B11491A702078104A00F00BFC012362
:102230000F4D1A4621780F48FFF76EFE2A780E4997
:10224000207800F0FFFB012321781A460948FFF7A8
:1022500063FE2B78002BFDD138BD00BF0008014084
:10226000580100208E000020C8320008C632000845
:102270008D000020A0000020CD32000800000000EA
:10228000F8B5FFF7A3FE0446FFF7ACFE054684420F
:102290008CBF201A281B80B2FEF7ACF806462846F1
:1022A0000F46FEF7A7F812A3D3E90023FEF708F9BB
:1022B00002460B4630463946FEF792FB70B920467F
:1022C000FEF798F80AA3D3E90023FEF7F9F80246CF
:1022D0000B4630463946FEF783FB30B10122064BF0
:1022E0001A70BDE8F840FFF781BFF8BDAFF300807A
:1022F0009A9999999999B93F8D00002010B50122BA
:1023000080212B48FFF74CF83220FEF7BBFB002260
:1023100040212748FFF744F83220FEF7B3FB4FF483
:1023200000712448FFF736F8012804BF0222224B2F
:102330004FF480611F4808BF1A70FFF72BF810B9DF
:1023400003221D4B1A704FF400411A48FFF722F880
:1023500010B90422184B1A70FFF792FF4FF4805106
:102360001348FFF717F868B1114C4FF4805120461D
:10237000FFF710F80028F8D13220FEF783FB042283
:102380000E4B1A704FF400510948FFF703F80B4C3D
:1023900050B10B4B9B88B3F5617F05D9FFF72EFE3B
:1023A0002278084B1A7010BD02232370F8E700BF93
:1023B000000C0140000801408D0000208E0000202C
:1023C000A00100208C00002037B5012240212948BF
:1023D000FEF7E6FF012280212648FEF7E1FFFFF726
:1023E0004FFFFFF7F3FD002340F6FF7200934FF419
:1023F000FA61C72300F0C1FA1F4B204DD863044691
:102400001F4A2049287800F01DFB012329781A462D
:102410001D48FFF781FD2146012302221A48FFF7DC
:102420007BFD4FF400411348FEF7B4FF10B90422BE
:10243000164B1A704FF480511548FEF7ABFFB0B140
:10244000134D4FF480512846FEF7A4FF04460028A0
:10245000F7D13220FEF716FB0422074BDC630D4B4D
:102460001A700C4B1A780C4B1A7003B030BD032253
:10247000F5E700BF000801400004004058010020BB
:10248000C4320008C8320008A00000208D000020DF
:10249000000C01408E0000208C00002038B5154C47
:1024A000154D22781549287800F0CCFA01232978B7
:1024B0001A461348FFF730FD2378042B18D8DFE8BD
:1024C00003F003070B0F1300BDE83840FFF7DEBD34
:1024D000BDE83840FFF70CBEBDE83840FFF70EBF3F
:1024E000BDE83840FFF770BFBDE83840FFF72EBEAB
:1024F00038BD00BF8C00002058010020D2320008F7
:10250000A0000020282210B594B00DEB020000219D
:1025100000F090FA142200210DEB020000F08AFA7C
:102520000021102201A800F085FA4FF48033022424
:1025300001220B9312934FF4E0130AA80A920E9211
:1025400013931194FEF732FF0F234FF4806205932B
:102550000023214605A80793089209930694FFF7E4
:10256000FFF84FF4404301A801940393FFF7B6F935
:1025700014B010BD80B56F4D8EB0FEF75FFAFFF757
:10258000C1FF1022002107A800F054FAAB69002215
:1025900043F01003AB61AB69DC2103F0100301933E
:1025A000019BAB69644843F02003AB61AB69002435
:1025B00003F020030293029BAB69012643F004035E
:1025C000AB61AB694FF0020803F004030393039B74
:1025D000AB69032743F00803AB61AB6903F0080361
:1025E0000493049BFEF7DCFE0022C0215348FEF753
:1025F000D7FEDC2307A95048079308960994CDF825
:102600002880FEF7E5FD4FF2380307A94B480793F2
:1026100008940994FEF7DCFD4FF4074307A94648E8
:10262000079308940994FEF7D3FDC02307A94348F4
:10263000079308960994CDF82880FEF7C9FD072274
:102640006B69114633436B616B690B203340009318
:10265000009BFEF763FC0B20FEF794FC384D394BD2
:1026600028462B604FF48073AB604FF460232E73C9
:10267000EB612C756C602F61079408940994FEF748
:10268000BBFB062307A92846099307940896FEF783
:1026900047FA07A928460796CDF82080FEF740FAAA
:1026A000052307A9284607930897FEF739FA1C2245
:1026B00021460DEB0200244D0594069400F0BAF972
:1026C000224B284685E88800C723AC60EB602C616C
:1026D000AC61FFF74DFA05A9284605940694FFF76B
:1026E00059FB6023082207A92846079308940994F8
:1026F0000B94FFF795FA284600F0B2F82846FFF74A
:10270000D9F908212846FFF7F7FA4FF41653104875
:10271000104A846080E80C000C23C46004614361AB
:102720008461C461FFF7CAFBFFF7A6FCFFF7B6FEA2
:10273000FAE700BF0010024000080140000C014011
:102740002801002000240140E00000200004004097
:10275000A000002000480040704700000E4B82B0EF
:102760009A6942F001029A619A6902F001020092AC
:10277000009ADA6942F08052DA61DB69074A03F0B5
:1027800080530193019B536823F0E06343F080631F
:10279000536002B0704700BF0010024000000140CB
:1027A00030B5054687B01022002102A800F042F99A
:1027B0002A681D4B9A4234D103F56C439A691B4831
:1027C00042F400729A619A6902A902F400720092BE
:1027D000009A9A69164C42F004029A619B6903F0D0
:1027E00004030193019B2323029303230393FEF726
:1027F000EFFC8022E2604FF4807222614FF480622D
:102800000C4B626123602022002320466360A3609A
:10281000A261E361FEF7DAFB08B1FFF79DFF2C62CE
:10282000656207B030BD00BF0024014000080140D0
:102830005C010020080002400268084B82B09A4206
:102840000AD103F50333DA6942F00202DA61DB6987
:1028500003F002030193019B02B0704700040040A3
:1028600010B5044686B01022002102A800F0E2F85C
:1028700022680C4B9A4213D103F503339A6902A9DB
:1028800042F008029A619B69074803F0080301932C
:10289000019B01230293022303930593FEF798FC07
:1028A00006B010BD00040040000C014010B5044605
:1028B00086B01022002102A800F0BCF82268174B55
:1028C0009A4228D103F5E433DA6902A942F480225E
:1028D000DA61DA69124802F480220092009A9A6959
:1028E00042F008029A619B6903F008030193019B7F
:1028F0004FF4806302930223039303230593FEF7AF
:1029000067FC4FF400630293002302A90448039379
:102910000493FEF75DFC06B010BD00BF0048004008
:10292000000C01407047FEE7FEE7FEE7FEE7704758
:1029300070477047FEF794B80148FEF7B5BB00BF7B
:102940005C01002008B50A4B0246196809B909491B
:1029500019606946186802448A4206D900F040F8B6
:102960000C2303604FF0FF3008BD1A6008BD00BFA4
:1029700090000020AC010020704710B5441ABDF84B
:102980000800521AC01A604390FBF2F0184480B25B
:1029900010BD0000002103E00B4B5B584350043195
:1029A0000A480B4B42189A42F6D30A4A02E0002327
:1029B00042F8043B084B9A42F9D3FFF7DDFF00F0E1
:1029C00015F8FFF7D7FD70472C33000800000020F2
:1029D0007000002070000020AC010020FEE7000025
:1029E000014B1868704700BF0C00002070B500252F
:1029F0000C4E0D4CA41BA410A54209D100F04EFCB6
:102A000000250A4E0A4CA41BA410A54205D170BD96
:102A100056F8253098470135EEE756F825309847A7
:102A20000135F2E72433000824330008243300087A
:102A30002833000803460244934200D1704703F84C
:102A4000011BF9E70EB44FF4027100B59CB0ADF86C
:102A500014106FF00041049107914FF6FF711DAB08
:102A600002900690084853F8042BADF81610006841
:102A700002A9019300F066F80022029B1A701CB0B4
:102A80005DF804EB03B070470C0000202DE9F0471F
:102A90008E6882469E420C469146984635D88A8971
:102AA00012F4906F31D00223256809696F1A6569A5
:102AB00005EB450595FBF3F508F101033B449D4209
:102AC00038BF1D46530531D5294600F047FB064661
:102AD00050B90C23CAF80030A3894FF0FF3043F0FF
:102AE0004003A381BDE8F0873A46216900F0C4FAAB
:102AF000A38923F4906343F08003A38126613E44BD
:102B0000266046466561ED1BA560464528BF4646E2
:102B100049463246206800F0BAFAA36800209B1BA1
:102B2000A36023681E442660BDE8F0872A4600F0B3
:102B300073FB06460028E1D12169504600F0C2FA35
:102B4000C7E700002DE9F04F9DB003938B898046C5
:102B50001C060D4616460FD50B696BB9402100F0D7
:102B6000FDFA2860286128B90C23C8F800304FF01E
:102B7000FF30C4E040236B610023099320238DF8CC
:102B8000293030234FF0010B8DF82A3037463C4670
:102B900014F8013B002B3CD1B7EB060A0BD053468F
:102BA000324629464046FFF771FF013000F0A2800F
:102BB000099B534409933B78002B00F09B80002332
:102BC0004FF0FF3204930793059206938DF853302C
:102BD0001A9305222178504800F040FA671C049BA4
:102BE000D8B9D90644BF20228DF853201A0744BF14
:102BF0002B228DF8532022782A2A16D000210A2071
:102C0000079A27463B780134303B092B50D9C9B18C
:102C100011E0252BC0D02746B9E73F4A3C46801A31
:102C20000BFA00F018430490D3E7039A111D1268C1
:102C30000391002A01DB079204E0524243F00203B1
:102C4000079204933B782E2B0DD17B78791C2A2B8D
:102C500032D1039B02371A1D1B680392002BB8BFA9
:102C60004FF0FF3305932D4C03223978204600F0B6
:102C7000F5F938B14023001B03FA00F0049B01373B
:102C8000034304933978062225487E1C8DF82810CA
:102C900000F0E4F9002835D0224BFBB9039B073341
:102CA00023F0070308330393099B4B4409936DE713
:102CB00000FB02320121A4E700230A2418460593F1
:102CC0000F463A780131303A092A03D9002BCAD08D
:102CD0000590C8E704FB00200123F1E703AB009354
:102CE0002A46114B04A94046AFF30080B0F1FF3FE4
:102CF0008146D9D1AB895B063FF539AF09981DB044
:102D0000BDE8F08F03AB00932A46074B04A9404669
:102D100000F084F8EAE700BFEE320008F432000861
:102D2000F8320008000000008D2A00082DE9F04765
:102D300091461F468A680B6906469342B8BF134600
:102D4000C9F8003091F843200C46DDF8208012B11C
:102D50000133C9F800302368990642BFD9F8003022
:102D60000233C9F80030256815F0060507D104F1D3
:102D7000190AE368D9F800209B1A9D422ADB94F8CF
:102D800043302268003318BF012392062FD404F188
:102D9000430239463046C047013022D02368E568F7
:102DA00003F00603042B18BF0025D9F800204FF0CC
:102DB000000908BFAD1AA368226908BF25EAE575B6
:102DC0009342C4BF9B1AED181A344D451BD1002005
:102DD000BDE8F0870123524639463046C0470130EE
:102DE00003D14FF0FF30BDE8F0870135C1E7302057
:102DF000E11881F843005A1C94F84510224402332C
:102E000082F84310C3E70123224639463046C047C3
:102E10000130E6D009F10109D7E700002DE9F043C0
:102E200017460A7E85B06E2A984606460C460C9BCD
:102E300001F1430E00F0BC801AD8632A2ED00AD8C4
:102E4000002A00F0C880582A00F08A8004F1420568
:102E500084F842202AE0642A01D0692AF6D1216848
:102E60001A6811F0800F23D0111D1960136827E034
:102E7000732A00F0B48008D86F2A2AD0702AE5D1CE
:102E80000A6842F020020A6003E0752A21D0782AFD
:102E9000DCD178226F4984F8452064E01A6801F19A
:102EA0004205111D1960136884F842300123A3E024
:102EB00011F0400F02F104011960D7D0B2F90030CF
:102EC000002B03DA2D225B4284F8432062490A2258
:102ED00017E02068196810F0800F03D0081D1860F3
:102EE0000B6806E010F0400F01F104001860F7D005
:102EF0000B886F2A14BF0A2208225749002084F841
:102F000043006568002DA560C0F29C80206820F019
:102F100004002060002B3FD1002D40F095807546C5
:102F2000082A0BD12368DA0708D5236962689A4218
:102F3000DEBF302305F8013C05F1FF35AEEB05039C
:102F40002361CDF800803B4603AA21463046FFF7B7
:102F5000EDFE013055D14FF0FF3005B0BDE8F083F4
:102F600081F845203C492268186812F0800F00F172
:102F700004051D6001D0036802E05506FBD50388F7
:102F8000D00744BF42F0200222601BB9226822F021
:102F9000200222601022B1E77546B3FBF2F002FB7B
:102FA0001033CB5C05F8013D03460028F5D1B7E7A7
:102FB00008681A6810F0800F496904D0101D186065
:102FC0001368196007E010F0400F02F10400186068
:102FD0001368F6D01980002375462361B1E71A689B
:102FE000111D1960156800216268284600F036F846
:102FF00008B1401B606063682361002384F843309C
:103000009FE723692A4639463046C0470130A2D09F
:1030100023689B0707D5002504F11909E368039A83
:103020009B1A9D4205DBE068039B9842B8BF184697
:1030300093E701234A4639463046C04701308AD0DB
:103040000135EBE7002BA7D10B7804F1420584F89A
:10305000423065E710330008FF32000810B5C9B2EE
:1030600002449042034601D1002010BD1C7801307B
:103070008C42F6D1184610BD10B5431E0A44914249
:1030800000D110BD11F8014B03F8014FF7E788425A
:1030900010B501EB020303D8421E99420CD110BDBA
:1030A0009842F9D28118D21AD34200D110BD13F838
:1030B000014D01F8014DF7E711F8014B02F8014FFE
:1030C000EBE7000038B50546002943D051F8043C31
:1030D0000C1F002BB8BFE41800F0D4F81E4A136888
:1030E000104633B9636014602846BDE8384000F0EC
:1030F000CAB8A3420BD921686218934201BF1A686B
:103100005B685218226063600460EDE713465A68FA
:103110000AB1A242FAD919685818A0420BD1206806
:103120000144581882421960DED110685268014487
:1031300019605A60D8E702D90C232B60D4E72068C5
:1031400021188A4201BF1168526809182160626023
:103150005C60C9E738BD00BF9400002070B5CD1C8D
:1031600025F0030508350C2D38BF0C25002D06462B
:1031700001DBA94203D90C233360002070BD00F0AD
:1031800081F8234A1468214691B9224C23681BB95F
:10319000304600F067F820602946304600F062F8BB
:1031A000431C26D10C233046336000F06CF8E4E772
:1031B0000B685B1B1AD40B2B0FD90B60CC18CD50AE
:1031C000304600F060F804F10B00231D20F00700EA
:1031D000C31A1BD05A42E25070BD8C420BBF6368C9
:1031E0004B681360636018BF0C46E9E70C464968FA
:1031F000CAE7C41C24F00304A04205D0211A3046BB
:1032000000F030F80130CDD02560D9E770BD00BFA7
:103210009400002098000020F8B5074614460E469A
:1032200021B91146BDE8F840FFF798BF22B9FFF772
:1032300049FF25462846F8BD00F026F884420FD9FC
:1032400021463846FFF78AFF05460028F2D031466E
:103250002246FFF711FF31463846FFF733FFE9E713
:103260003546E7E738B50023054C05460846236098
:10327000FFF768FB431C02D1236803B12B6038BD04
:10328000A80100207047704751F8040C0028A0F1F5
:103290000400BCBF0B58C01870470000F8B500BF51
:1032A000F8BC08BC9E467047F8B500BFF8BC08BC27
:0432B0009E4670477F
:1032B40002030405060708090A0B0C0D0E0F101073
:1032C400440045002563200A002564200A00256483
:1032D4000A000000000000000000010203040607C9
:1032E40008090000000001020304232D302B2000F4
:1032F400686C4C00656667454647003031323334AC
:10330400353637383941424344454600303132334B
:10331400343536373839616263646566000000000D
:043324003501000867
:043328001101000887
:10332C0001000000100000000024F4001000002038
:10333C000000000000000000000000000000000081
:10334C000000000000000000000000000000000071
:10335C000000000000000000000000000000000061
:10336C000000000000000000000000000000000051
:10337C000000000000000000000000000000000041
:10338C000000000000000000000000000000000031
:040000050800299531
:00000001FF
