:020000040800F2
:1000000000500020711900084D1900084F19000810
:100010005119000853190008551900080000000084
:100020000000000000000000000000005719000858
:1000300059190008000000005B1900085D1900084C
:10004000B9190008B9190008B9190008B919000848
:10005000B9190008B9190008B9190008B919000838
:10006000B9190008B9190008B91900086119000880
:10007000B9190008B9190008B9190008B919000818
:10008000B9190008B9190008B9190008B919000808
:10009000B9190008B9190008B9190008B9190008F8
:1000A000B9190008B9190008B9190008B9190008E8
:1000B000B9190008B9190008B9190008B9190008D8
:1000C000B9190008B9190008B9190008B9190008C8
:1000D000B9190008B9190008B9190008B9190008B8
:1000E000B9190008B9190008B91900080000000082
:1000F0000000000000000000000000000000000000
:0C01000000000000000000005FF808F1A3
:10010C0010B5054C237833B9044B13B10448AFF345
:10011C0000800123237010BD0C00002000000000A3
:10012C00141A000808B5034B1BB103490348AFF37D
:10013C00008008BD0000000010000020141A000808
:10014C0038B50E4B054618784FF47A73B3FBF0F3C1
:10015C000B4A1068B0FBF3F000F0ACFA044658B947
:10016C000F2D09D8024629464FF0FF3000F060FAF7
:10017C00044B20461D6038BD012038BD0000002016
:10018C000800002004000020074A08B5136803206B
:10019C0043F01003136000F039FA0020FFF7D0FF92
:1001AC0001F0B2FA002008BD00200240034A044BC3
:1001BC0011681B780B441360704700BF28000020A7
:1001CC0000000020014B1868704700BF2800002079
:1001DC00002373B5019390F82430012B74D00123C4
:1001EC004D6880F82430062D02684FEA85030C68B0
:1001FC0025D82B441F25566B053B9D4026EA05054B
:10020C0004FA03F32B435363092C4FEA44038D6820
:10021C002FD907262344D1681E3B9E4021EA0601B4
:10022C0005FA03F30B43D360A4F11003012B2BD974
:10023C000023002280F82420184602B070BD0C2D3B
:10024C000BD82B441F25166B233B9D4026EA050536
:10025C0004FA03F32B431363D6E72B441F25D66A0A
:10026C00413B9D4026EA050504FA03F32B43D36278
:10027C00CAE70726116923449E4021EA060105FAC4
:10028C0003F30B431361CFE7104B9A4216D19368DB
:10029C001B02CDD49368102C43F400039360C7D198
:1002AC000B4B0C4A1B68B3FBF2F20A23534301932A
:1002BC00019B002BBCD0019B013BF8E7836A43F008
:1002CC00200383620123B4E70223B5E70024014035
:1002DC000800002040420F0038B5036804469A68B5
:1002EC00D10701D4002038BD9A6822F001029A602F
:1002FC00FFF768FF054623689B68DB07F2D5FFF71D
:10030C0061FF401B0228F6D923689B68DA07F2D5F7
:10031C00A36A012043F01003A362E36A43F00103D4
:10032C00E36238BD70B50446002871D0836A23B9E6
:10033C00C36280F8243001F009FA2046FFF7CCFFA5
:10034C00A36A13F0100FA36A64D1002862D1E1698B
:10035C0023F48853626823F0020343F002030A4338
:10036C00A168A362237BB1F5807F42EA430238D0B7
:10037C00012914BF06464FF48076257D012D07D147
:10038C00002B30D1A369013B46EA433545F40066A6
:10039C002368B1F5807F5D6825F4694545EA06055B
:1003AC005D609E681D4D05EA060545EA02059D60E7
:1003BC0001D0012920D1216901390905DD6A25F413
:1003CC0070052943D9629968154B0B409A4215D197
:1003DC000023E362A36A23F0030343F00103A36247
:1003EC0070BD0E46C9E7A36A43F02003A362E36A1B
:1003FC0043F00103E362CBE70021DFE7A36A23F0BC
:10040C00120343F01003A362E36A43F00103E362B7
:10041C00012070BD43F01003A362F9E7FDF7E1FF83
:10042C00FE0E1FFF38B5044600286ED090F8203021
:10043C000BB901F0D7F92268136843F0010313607C
:10044C00FFF7C0FE054623685A68D10751D51A68D4
:10045C0022F002021A60FFF7B5FE054623685A68BF
:10046C00920754D4227E0020012A1A680CBF42F055
:10047C00800222F080021A60627E012A1A680CBF88
:10048C0042F0400222F040021A60A27E012A1A6851
:10049C000CBF42F0200222F020021A60E27E012AF8
:1004AC001A680CBF22F0100242F010021A60227F70
:1004BC00012A1A680CBF42F0080222F008021A60E6
:1004CC00627F012A1A680CBF42F0040222F0040277
:1004DC001A60E168A2680A4321690A4361690A4308
:1004EC00616801390A43DA610123606284F82030C3
:1004FC0038BDFFF767FE401B0A28A4D9636A43F492
:10050C0000336362052384F82030012038BDFFF7E7
:10051C0059FE401B0A28A1D9F0E738B590F82030D5
:10052C000446012B1FD10223026880F82030136887
:10053C0023F001031360FFF745FE05462368586856
:10054C0010F0010001D1606238BDFFF73BFE401B8B
:10055C000A28F3D9636A43F400336362052384F8F1
:10056C002030012038BD436A43F400234362F8E78E
:10057C00F0B590F820500668013D012DB46841D8C3
:10058C0014F0E05F3AD0C4F30164032C4FF0010582
:10059C0005D1436A43F4000343620120F0BDA5403A
:1005AC001D608868CF6804F1180310BB086847EA1F
:1005BC0040501B01F05008692401097D3319C3F820
:1005CC008401012908BFD3F88411344404BF41F4D9
:1005DC008071C3F8841151680020C4F88C11126822
:1005EC00C4F88821D3F8802142F00102C3F880219D
:1005FC00F0BD4D68384340EAC500DAE7436A43F47E
:10060C000013C9E7436A43F48023C5E7074A000295
:10061C00D36800F4E06023F4E0631B041B0C43F08C
:10062C00BF6343F400330343D360704700ED00E035
:10063C00174B30B5DC68C4F30224C4F10703251D45
:10064C00042B28BF0423062D4FF0010598BF00246E
:10065C0005FA03F303F1FF3388BF033C1940A140B3
:10066C0005FA04F4013C2240002842EA01024FEA58
:10067C000212A9BF00F16040064BD2B200F56140F6
:10068C00BBBF00F00F00D2B280F800231A5430BD6B
:10069C0000ED00E014ED00E0002808DB0123420926
:1006AC0000F01F0003FA00F0014B43F822007047E2
:1006BC0000E100E00138B0F1807F0AD2F021064B56
:1006CC00064A586082F823100020072298601A60AE
:1006DC0070470120704700BF10E000E000ED00E023
:1006EC0010B530B314220168134B84680B44B3FB70
:1006FC00F2F39B000364114B0A68C363436822F452
:10070C007F522343C46822F03002234304692343FD
:10071C004469234384692343C469234313430B6013
:10072C000122002380F82120836380F820301846B2
:10073C0010BD012010BD00BFF8FFFDBF000002403E
:10074C0070B40425C66B026C34680368954025426E
:10075C00196832D04D0730D51A6896065EBF1A68F4
:10076C0022F004021A603E4A934219D0143293428A
:10077C0018D01432934217D01432934217D014323B
:10078C00934217D0143293420CBF4FF480034FF0B6
:10079C008063344A5360C36A002B5ED070BC184728
:1007AC000423F6E74023F4E74FF48063F1E74FF4BA
:1007BC008043EEE74FF48023EBE70225954025427A
:1007CC0035D08D0733D51A68940606D41A6822F0F2
:1007DC000A021A60012280F82120214A934219D082
:1007EC001432934218D01432934217D014329342DD
:1007FC0017D01432934217D0143293420CBF4FF4DB
:10080C0000134FF00073174A5360002380F8203018
:10081C00836AC1E70223F6E72023F4E74FF4007361
:10082C00F1E74FF40053EEE74FF40033EBE7082504
:10083C009540254211D009070FD5196821F00E01FA
:10084C001960012303FA02F27260836380F821308D
:10085C00002380F82030036B9EE770BC704700BF0C
:10086C0008000240000002402DE9F74F0024264604
:10087C00664BDFF8A8E1DFF8A8C10A6832FA06F582
:10088C0002D103B0BDE8F08F4FF0010808FA06F86A
:10089C0002EA080290457FD14D68122D00F0AA8023
:1008AC0000F28380022D00F0A28077D8002D00F09A
:1008BC008980012D00F099804FF00F09FF2A93BF1A
:1008CC00824606F18045083DD0F800B092BFB500D5
:1008DC00D0F804B0AD0009FA05F82BEA080804FAC0
:1008EC0005F588BF00F1040A48EA0505CAF800506E
:1008FC00D1F804A01AF0805F4ED0454D444FAD693D
:10090C0026F0030845F00105BD61BD6908F180487A
:10091C0005F00105019508F5803806F0030B019DE3
:10092C004FEA8B0BD8F8085009FA0BF925EA09099C
:10093C00384DA84263D005F58065A84261D005F515
:10094C008065A8425FD005F58065A8420CBF0325E1
:10095C00042505FA0BF545EA0905C8F808501D6889
:10096C001AF4803F14BF154395431D605D681AF45B
:10097C00003F14BF154395435D609D681AF4801FBA
:10098C0014BF154395439D60DD681AF4001F14BF16
:10099C002A4325EA0202DA6001366EE7032D22D0E3
:1009AC00112D89D1CC68043486E71B4FBD4209D088
:1009BC0012D8DFF870904D4504D009F580394D45BB
:1009CC007FF47AAF8C68C4B1012C0CBFC0F81080D6
:1009DC00C0F8148008246FE77545F3D06545F1D055
:1009EC00DFF84490EBE7002466E7CC6864E7CC685A
:1009FC00083461E7CC680C345EE704245CE700251E
:100A0C00A7E70125A5E70225A3E700BF00040140E5
:100A1C0000100240000801400000211000003110BD
:100A2C000000321000001110000022100AB1016108
:100A3C0070470904FBE700002DE9F341054608B9AE
:100A4C0001203CE00368DB0710D42B689F075DD4C2
:100A5C002B68190700F194802B685A0700F1BE80AF
:100A6C00E869002840F02C81002028E08F4C636856
:100A7C0003F00C03042B07D0636803F00C03082B62
:100A8C0009D16368DE0306D523689C03DDD56B684A
:100A9C00002BDAD1D4E76B68B3F5803F12D1236811
:100AAC0043F480332360FFF78DFB064623689803DD
:100ABC00CBD4FFF787FB801B6428F7D9032002B047
:100ACC00BDE8F0819BB9236823F48033236023684D
:100ADC0023F480232360FFF775FB064623689903F4
:100AEC00B3D5FFF76FFB801B6428F7D9E6E7B3F5A6
:100AFC00A02F236803D143F480232360CFE723F492
:100B0C0080332360236823F48023CBE7674C63682E
:100B1C0013F00C0F07D0636803F00C03082B10D1F3
:100B2C006368DA030DD423689B0702D52B69012B6C
:100B3C0086D123686A6923F0F80343EAC203236071
:100B4C0086E72A695A4B6AB101221A60FFF73AFB11
:100B5C00064623689F07ECD4FFF734FB801B022862
:100B6C00F7D9ABE71A60FFF72DFB06462368980709
:100B7C007FF56EAFFFF726FB801B0228F6D99DE7A9
:100B8C00AA694A4C4B4BDAB101221A60FFF71AFBE7
:100B9C000646636A9B070DD54FF4FA52464B1B6809
:100BAC00B3FBF2F3019300BF019B5A1E0192002B81
:100BBC00F9D151E7FFF706FB801B0228E9D97DE745
:100BCC001A60FFF7FFFA0646636A9F077FF544AF8A
:100BDC00FFF7F8FA801B0228F6D96FE7334CE3696C
:100BEC00D80024D40127E36943F08053E361E3691F
:100BFC0003F080530093009B304E3368D90518D511
:100C0C00EB68012B26D1236A43F001032362FFF723
:100C1C00D9FA41F288368046236A9B073FD5002FCC
:100C2C003FF41EAFE36923F08053E36118E700271C
:100C3C00E2E7336843F480733360FFF7C3FA80460E
:100C4C003368DA05DCD4FFF7BDFAA0EB08006428A2
:100C5C00F6D933E7ABB9236A41F2883823F00103A4
:100C6C002362236A23F004032362FFF7ABFA0646E0
:100C7C00236A9807D3D5FFF7A5FA801B4045F7D90F
:100C8C001CE7052B236A03D143F004032362BAE764
:100C9C0023F001032362236A23F00403B6E7FFF772
:100CAC0091FAA0EB0800B042B6D907E70010024059
:100CBC0000004242800442420800002000700040C4
:100CCC002A4B5A681C4602F00C02082A3DD000231D
:100CDC00274E022833602BD1FFF774FA074623689E
:100CEC0099011FD42B6AB3F5803F05D16268A968BE
:100CFC0022F400320A436260696A62680B4322F490
:100D0C0074121343636001233360FFF75BFA0546EB
:100D1C0023689A013FF5A8AEFFF754FA401B02284E
:100D2C00F6D9CBE6FFF74EFAC01B0228D7D9C5E699
:100D3C00FFF748FA054623689B017FF595AEFFF750
:100D4C0041FA401B0228F6D9B8E601283FF4B7AEA9
:100D5C0058682B6A00F480329A427FF471AE6B6A49
:100D6C0000F47010C01A18BF0120A8E60010024051
:100D7C006000424230B5194B87B002AC03F110054C
:100D8C00224618685968083303C2AB421446F7D19F
:100D9C0001238DF80430022311498DF805304B687E
:100DAC0003F00C02082A17D1C3F3834206A80244AD
:100DBC00DB0312F8102C0CD54B680A48C3F34043E4
:100DCC00504306AA134413F8143CB0FBF3F007B0DD
:100DDC0030BD05485043FAE70248F8E72C1A0008E2
:100DEC000010024000127A0000093D002DE9F0418C
:100DFC000D46044610B90120BDE8F081454A136840
:100E0C0003F007038B4229D321688E0731D4CA071C
:100E1C0044D4404A136803F007039D4267D3226809
:100E2C003D4D12F0040F6ED1130706D56B68226985
:100E3C0023F4605343EAC2036B60FFF79BFF6B68BC
:100E4C00364AC3F30313D35CD840354B1860354B8B
:100E5C001868FFF775F90020BDE8F081136823F0DE
:100E6C0007030B431360136803F007039942C2D1C5
:100E7C00CAE7294B11F0040F1EBF5A6842F4E06216
:100E8C005A60080742BF5A6842F460525A605A6866
:100E9C00A06822F0F00202435A60B8E762681E4E66
:100EAC00012A33681BD113F4003FA4D0736841F2BC
:100EBC00883823F0030313437360FFF783F9074665
:100ECC007368626803F00C03B3EB820FA1D0FFF7D9
:100EDC0079F9C01B4045F3D90320BDE8F081022A03
:100EEC0002D113F0007FE0E713F0020FDDE7136887
:100EFC0023F007032B431360136803F007039D4291
:100F0C007FF479AF8BE76B68E16823F4E0630B4304
:100F1C006B6089E700200240001002403C1A000878
:100F2C000800002004000020044B054A5B68C3F352
:100F3C000223D35C034A1068D8407047001002406B
:100F4C004C1A000808000020044B054A5B68C3F3E8
:100F5C00C223D35C034A1068D8407047001002408B
:100F6C004C1A00080800002003682DE9F341D9074A
:100F7C00054620D5354CE369DA0032D40127E36904
:100F8C0043F08053E361E36903F080530193019BC9
:100F9C002F4E3368DB0526D5236A13F4407336D104
:100FAC00236A6A6823F44073134323621FB1E36915
:100FBC0023F08053E3612868830706D5234AA96888
:100FCC00536823F440430B43536010F010001BD0C4
:100FDC001E4AE9685368002023F480030B435360D6
:100FEC0012E00027D4E7336843F480733360FFF7D3
:100FFC00E9F880463368D805CED4FFF7E3F8A0EBC8
:10100C0008006428F6D9032002B0BDE8F0816A68B4
:10101C0002F440729342C3D001200E4A236A10603E
:10102C00002023F4407110602162D907B8D5FFF776
:10103C00C9F841F288380646236A9A07B0D4FFF7FC
:10104C00C1F8801B4045F7D9DDE700BF0010024016
:10105C000070004040044242036A70B523F0010363
:10106C000362036A446882690D6822F073022A43A2
:10107C008D6823F002032B430A4DA8420BD1CD6897
:10108C0023F008032B438E694D6924F440743543D7
:10109C0023F004032C43446082614A684263036278
:1010AC0070BD00BF002C0140036A70B523F480733F
:1010BC000362036A4468C2690D6822F073022A4312
:1010CC008D6823F4007343EA05230B4DA8420DD120
:1010DC00CD6823F4006343EA05238E694D6924F43B
:1010EC004054354323F4806344EA05144460C261E0
:1010FC004A68C263036270BD002C0140036A30B5BC
:10110C0023F480530362036A4468C2690D6822F4B5
:10111C00E64242EA05228D6823F4005343EA053384
:10112C00064DA84202BF4D6924F4804444EA85145C
:10113C004460C2614A680264036230BD002C014005
:10114C001A4A036890420AD0B0F1804F07D0A2F53A
:10115C009432904203D002F58062904215D14A68D5
:10116C0023F070031343114A90420AD0B0F1804F20
:10117C0007D0A2F59432904203D002F580629042DF
:10118C0003D1CA6823F4407313434A6923F08003E4
:10119C00134303608B68C3620B688362034B9842F2
:1011AC0004BF0B690363012343617047002C0140AA
:1011BC0010B5044630B390F83D3003F0FF021BB974
:1011CC0080F83C2000F046FB0223206884F83D3078
:1011DC00211DFFF7B5FF0123002084F8463084F869
:1011EC003E3084F83F3084F8403084F8413084F845
:1011FC00423084F8433084F8443084F8453084F825
:10120C003D3010BD012010BD036A70B523F01003F2
:10121C000362036A446882690D6822F4E64242EA7A
:10122C0005228D6823F0200343EA05130B4DA842D9
:10123C000DD1CD6823F0800343EA05138E694D6907
:10124C0024F44064354323F0400344EA85044460AD
:10125C0082614A688263036270BD00BF002C01404A
:10126C0038B590F83C300446012B54D0012380F85B
:10127C003C300C2A18D8DFE802F0071717171B1799
:10128C0017172C1717173D000068FFF7E5FE2368AA
:10129C0009699A6942F008029A619A6922F004027B
:1012AC009A619A690A439A61002084F83C0038BD1F
:1012BC000068FFF7A9FF236809699A6942F4006284
:1012CC009A619A6922F480629A619A6942EA0122CF
:1012DC00E9E70068FFF7E8FE23680969DA6942F07C
:1012EC000802DA61DA6922F00402DA61DA690A4387
:1012FC00DA61D9E70068FFF701FF23680969DA6949
:10130C0042F40062DA61DA6922F48062DA61DA6945
:10131C0042EA0122ECE7022038BD000090F83C3094
:10132C0030B5012B4FF0020325D0012280F83D305F
:10133C0003680D685C6880F83C2024F070042C4332
:10134C009A685C600D4CA3420AD0B3F1804F07D071
:10135C00A4F59434A34203D004F58064A34204D1D1
:10136C00496822F080020A439A60012380F83D30DC
:10137C00002380F83C30184630BD00BF002C0140E3
:10138C0038B504460368C1681A6922F440520A430E
:10139C001A6182680069D9680243606921F4B0510E
:1013AC0021F00C0102430A43DA605A69A16922F464
:1013BC0040720A435A610E4A934215D1FFF7C4FD9D
:1013CC0019235843636864229B00B0FBF3F0B0FB15
:1013DC00F2F102FB11031B013233B3FBF2F325686C
:1013EC0003EB0113AB6038BDFFF79EFDE8E700BFD0
:1013FC000038014010B5044640B390F83D3003F07E
:10140C00FF021BB980F83C2000F05EFA242322680E
:10141C0084F83D30D368204623F40053D360FFF7A3
:10142C00AFFF236800201A6922F490421A615A69AE
:10143C0022F02A025A61DA6842F40052DA60202360
:10144C00206484F83D3084F83E3010BD012010BD7E
:10145C00282210B594B00DEB0200002100F0CCFA5C
:10146C00142200210DEB020000F0C6FA002110221C
:10147C0001A800F0C1FA4FF48033012202240B932F
:10148C0012934FF4E0130AA80A920E92139311943C
:10149C00FFF7D2FA0F230593002307934FF48063D1
:1014AC0008934FF4C063214605A809930694FFF7EF
:1014BC009DFC4FF4404301A801940393FFF754FDA6
:1014CC0014B010BD4FF0100880B5834D90B0FEF7EE
:1014DC005BFEFFF7BDFF4246002109A800F08CFA25
:1014EC00AB69002243EA0803AB61AB69DC2103EA78
:1014FC0008030393039BAB69784843F02003AB616B
:10150C00AB69002403F020030493049BAB69012610
:10151C0043F00403AB61AB694FF0020903F0040321
:10152C000593059BAB69032743F00803AB61AB69DB
:10153C0003F008030693069BFFF778FA0022C021FC
:10154C006748FFF773FADC2309A9644809930A96E4
:10155C000B94CDF83090FFF787F94FF2380309A9B7
:10156C005F4809930A940B94FFF77EF94FF40743F5
:10157C0009A95A4809930A940B94FFF775F9C023EB
:10158C0009A9574809930A960B94CDF83090FFF7A8
:10159C006BF96B69224633436B616B6921463340AF
:1015AC0002930B20029BFFF743F80B20FFF774F814
:1015BC004C4D4D4B28462B604FF48073AB604FF471
:1015CC0060232E73EB612C756C602F6109940A9467
:1015DC000B94FEF7A7FE062309A928460B930A963F
:1015EC000994FEF7F5FD0996052609A92846CDF8BC
:1015FC002890FEF7EDFD09A9284609960A97FEF7F3
:10160C00E7FD1C22214609A8384D0794089400F0E8
:10161C00F3F9374B284685E88800C723AC60EB60AC
:10162C002C61AC61FFF7C4FD07A928460794089408
:10163C00FFF774FE602309A90822284609930A942F
:10164C000B940D94FFF70CFE284600F017F94FF49D
:10165C0016532848284A294D80E80C000C23846036
:10166C004361C46004618461C461FFF7C3FE244B11
:10167C00284685E808014FF430232B614FF4800392
:10168C00AC606B61EC602C766C76AC76EC762C777F
:10169C006C77FEF7C7FE2846FEF73FFF182221465F
:1016AC0009A800F0A9F940F2FA73099343238DF8C5
:1016BC001C3055238DF81D3052238DF81E305423C9
:1016CC000D9608948DF81F3001AB07AA09A928467E
:1016DC00FEF74EFFF8E700BF001002400008014083
:1016EC00000C0140B80000200024014070000020D4
:1016FC00000400402C00002000480040680100203D
:10170C0000640040704700000E4B82B09A6942F0B2
:10171C0001029A619A6902F001020092009ADA6958
:10172C0042F08052DA61DB69074A03F0805301937F
:10173C00019B536823F0E06343F08063536002B075
:10174C00704700BF001002400000014030B5054654
:10175C0087B01022002102A800F04EF92A681D4B18
:10176C009A4234D103F56C439A691B4842F40072D7
:10177C009A619A6902A902F400720092009A9A691D
:10178C00164C42F004029A619B6903F00403019326
:10179C00019B2323029303230393FFF765F8802215
:1017AC00E2604FF4807222614FF480620C4B6261F4
:1017BC0023602022002320466360A360A261E361C2
:1017CC00FEF78EFF08B1FFF79DFF2C62656207B034
:1017DC0030BD00BF00240140000801401C01002066
:1017EC000800024010B5044686B01022002102A861
:1017FC0000F002F92268154B9A4225D103F5D63335
:10180C00DA6902A942F00072DA61DA69104802F072
:10181C0000720092009A9A6942F004029A619B69E4
:10182C0003F004030193019B4FF400630293FFF751
:10183C001BF84FF48053029302230393032302A952
:10184C0003480593FFF710F806B010BD0064004084
:10185C00000801400268084B82B09A420AD103F595
:10186C000333DA6942F00202DA61DB6903F0020346
:10187C000193019B02B070470004004010B5044670
:10188C0086B01022002102A800F0B6F822680C4B9A
:10189C009A4213D103F503339A6902A942F0080264
:1018AC009A619B69074803F008030193019B01238C
:1018BC000293022303930593FEF7D6FF06B010BDE7
:1018CC0000040040000C014010B5044686B0102204
:1018DC00002102A800F090F82268174B9A4228D1F8
:1018EC0003F5E433DA6902A942F48022DA61DA6999
:1018FC00124802F480220092009A9A6942F008027F
:10190C009A619B6903F008030193019B4FF4806378
:10191C0002930223039303230593FEF7A5FF4FF4D1
:10192C0000630293002302A9044803930493FEF777
:10193C009BFF06B010BD00BF00480040000C0140EA
:10194C007047FEE7FEE7FEE7FEE77047704770471B
:10195C00FEF72CBC0148FEF7F3BE00BF1C010020B3
:10196C0070470000002103E00B4B5B5843500431DF
:10197C000A480B4B42189A42F6D30A4A02E000235B
:10198C0042F8043B084B9A42F9D3FFF7E9FF00F009
:10199C000FF8FFF797FD70475C1A00080000002055
:1019AC000C0000200C00002090010020FEE700003D
:1019BC0070B500250C4E0D4CA41BA410A54209D1EA
:1019CC0000F022F800250A4E0A4CA41BA410A542D4
:1019DC0005D170BD56F8253098470135EEE756F81D
:1019EC00253098470135F2E7541A0008541A0008BC
:1019FC00541A0008581A000803460244934200D1B6
:101A0C00704703F8011BF9E7F8B500BFF8BC08BC38
:101A1C009E467047F8B500BFF8BC08BC9E467047A0
:101A2C0002030405060708090A0B0C0D0E0F101013
:101A3C000000000000000000010203040607080972
:081A4C00000000000102030488
:041A54003101000854
:041A58000D01000874
:0C1A5C0001000000100000000024F40055
:040000050800197165
:00000001FF
